:100000000C94C0040C94DD040C94DD040C9460305A
:100010000C94DD040C94DD040C94DD040C94DD04DC
:100020000C94DD040C94DD040C94FF190C94161E42
:100030000C94102A0C94DD040C94DD040C94DD0463
:100040000C94DD040C94DD040C94DD040C94DD04AC
:100050000C94DD040C94D81A0C94DD040C94DD048B
:100060000C94DD040C94DD040C94DD040C94DD048C
:100070000C94DD040C94DD040C94DD040C94DD047C
:100080000C94DD040C94DD040C94DD040C94DD046C
:100090000C94DD040C94DD040C94DD040C94DD045C
:1000A0000C94DD040C94DD040C94DD0435001E007A
:1000B0001F002000210022002B0014001A0008005D
:1000C00015001700E00004001600070009410A00AF
:1000D000E1001D001B0006001900050000000000E3
:1000E000E2002A00E300A8002D00270026002500DA
:1000F000240023002900130012000C0018001C002B
:10010000340033000F000E000D000B00E500380036
:10011000370036001000110030002F002E0028009C
:100120002C00AE00290000000000000000000000CC
:10013000000000005200000000000000000050001D
:1001400051004F000000000000000000000000000F
:10015000000000000000000000000000000000009F
:10016000000000000000000000000000310000005E
:10017000D200CD00D100000000000000D000CE0071
:10018000CF00000000000000DF00DE00DD00000006
:1001900000000000000000000000000000DA028102
:1001A000FFD9F1DB20A4A62EAF00A0C0D30000A190
:1001B000C8D30000AED580A81F408D1420000001D8
:1001C0000101010101010101020202020202020217
:1001D00002030303030303030304040404040404E9
:1001E00005050505050606060606070707070708AD
:1001F000080808090909090A0A0A0B0B0B0C0C0C60
:100200000D0D0D0E0E0E0F0F0F10101111111212F9
:1002100013131414151516161717181819191A1A76
:100220001B1B1C1D1D1E1E1F2020212222232424D7
:10023000252626272829292A2B2C2D2D2E2F303113
:100240003232333435363738393A3B3C3D3E3F4025
:100250004142434445464748494A4C4D4E4F505110
:100260005354555658595A5B5D5E5F6162646566CA
:1002700068696B6C6D6F7072737577787A7B7D7E51
:100280008082838587888A8C8E8F91939596989AA1
:100290009C9EA0A2A3A5A7A9ABADAFB1B3B5B7BAB9
:1002A000BCBEC0C2C4C6C9CBCDCFD1D4D6D8DBDD8D
:1002B000DFE2E4E7E9EBEEF0F3F5F8FAFDFF00AF7B
:1002C00000AE808182838485868788898A8B8C8D25
:1002D0008E8F9091929394A0A1A2A3A4A5A6A7A863
:1002E000A9AAABACADAEAFB0B1B2B3B4C0C1C2C3DA
:1002F000C4C5C6C7C8C9CACBCCCDCECFD0D1D2D346
:10030000D40005010902A10185020901A100050926
:1003100019012908150025019508750181020501BB
:10032000093009311581257F950275088106093844
:100330001581257F950175088106050C0A3802157F
:1003400081257F950175088106C0C005010980A13E
:1003500001850319012AB700150126B7009501751B
:10036000108100C0050C0901A101850419012AA012
:1003700002150126A002950175108100C005010932
:1003800006A101050719E029E71500250195087563
:100390000181029501750881010507190029FF15E2
:1003A0000026FF009506750881000508190129053A
:1003B00015002501950575019102950175039101BF
:1003C000C009023B00020100A0FA09040000010379
:1003D00001010009211101000122440007058103E8
:1003E00008000109040100010300000009211101B6
:1003F0000001227B00070582032000011201000298
:100400000000000832FC870201000102000116030F
:1004100053006F0066006C00650020004300680018
:100420006F00630000001403420072006900610065
:100430006E0020004C006F007700000004030904E8
:1004400007087F0807003E5B4F5B3E003E6B4F6B2B
:100450003E001C3E7C3E1C00183C7E3C18001C5795
:100460007D571C001C5E7F5E1C0000183C180000BD
:10047000FFE7C3E7FF00001824180000FFE7DBE7F1
:10048000FF0030483A060E00262979292600407FD1
:1004900005050700407F05253F005A3CE73C5A0010
:1004A0007F3E1C1C0800081C1C3E7F0014227F227B
:1004B00014005F5F005F5F0006097F017F00006638
:1004C00089956A0060606060600094A2FFA2940059
:1004D00008047E04080010207E20100008082A1C52
:1004E0000800081C2A0808001E10101010000C1E1E
:1004F0000C1E0C0030383E383000060E3E0E060052
:1005000000000000000000005F000000000700077E
:100510000000147F147F1400242A7F2A1200231362
:1005200008646200364956205000000807030000A6
:10053000001C224100000041221C00002A1C7F1CDC
:100540002A0008083E0808000080703000000808F3
:100550000808080000006060000020100804020085
:100560003E5149453E0000427F40000072494949E2
:1005700046002141494D33001814127F10002745D1
:10058000454539003C4A49493100412111090700DC
:10059000364949493600464949291E0000001400E1
:1005A0000000004034000000000814224100141430
:1005B0001414140000412214080002015909060015
:1005C0003E415D594E007C1211127C007F49494921
:1005D00036003E41414122007F4141413E007F497A
:1005E000494941007F09090901003E414151730019
:1005F0007F0808087F0000417F4100002040413F04
:1006000001007F08142241007F40404040007F02EB
:100610001C027F007F0408107F003E4141413E00E4
:100620007F09090906003E4151215E007F09192911
:10063000460026494949320003017F0103003F403B
:1006400040403F001F2040201F003F4038403F00F7
:100650006314081463000304780403006159494DCE
:100660004300007F41414100020408102000004186
:1006700041417F000402010204004040404040002C
:100680000003070800002054547840007F284444A9
:100690003800384444442800384444287F00385403
:1006A0005454180000087E09020018A4A49C780085
:1006B0007F080404780000447D4000002040403D55
:1006C00000007F102844000000417F4000007C04AF
:1006D000780478007C0804047800384444443800E6
:1006E000FC182424180018242418FC007C08040496
:1006F000080048545454240004043F4424003C405F
:1007000040207C001C2040201C003C4030403C002D
:100710004428102844004C9090907C004464544C31
:10072000440000083641000000007700000000414E
:10073000360800000201020402003C2623263C0089
:10074000000000000000404040F0F8F8FF38FFF8DB
:10075000F83FF8F8FF38FFF8F8F04040400000009C
:1007600000000080C0C0C0800000C0C08000000049
:1007700080C0C000C0C0000080C0C00000000000F9
:10078000C0C0C0C0C000C0C0000000000000000029
:100790000000000000000000000000000000000059
:1007A0000000000000000000000000000000000049
:1007B000000000000000000000000000000000C079
:1007C000F0F8FC3E1E06010000007F4141417F0021
:1007D0007F4141417F000080C0E07E5B4F5BFEC0F7
:1007E0000000C000DCD7DEDEDED7DC00C000000089
:1007F00000000000000000000000000000000000F9
:10080000000000000000494949FFFFFFFFE0DFBF93
:10081000BF00BFBFDFE0FFFFFFFF49494900000005
:1008200000001F3F6060E0BF1F007F7F071E381E73
:10083000077F7F007F7F0E1F3B716000000000007C
:100840007F7F0C0C0C007E7E007F7E0303007F7E8A
:1008500003037E7E03037F7E000F3E703C063C70E8
:100860003E0F00327B49493F7E007F7E0303001E1E
:100870003F69696F260000000000000000000003CF
:100880000F1F3F3C7870600000007F4141417F00B6
:100890007F4141417F00307B7F7830202030787F5E
:1008A0003B0003000F7F0F0F0F7F0F0003000000BE
:1008B0000000000000000000000000000000000038
:1008C000000000000000010101070F0F7F0F7F0FE4
:1008D0000F7E0F0F7F0F7F0F0F0701010100000038
:1008E0000000000000000001010000000000000006
:1008F00000000000000000000000000000000000F8
:1009000000000000000000000000000000000000E7
:1009100000000000000000000000000000000000D7
:1009200000000000000000000000000000000000C7
:1009300000000000000000000000000000000000B7
:1009400000000000000000000000000000000000A7
:100950000000000000000000000000000000000097
:100960000000000000000000000000000000000087
:100970000000000000000000000000000000000077
:1009800011241FBECFEFDAE0DEBFCDBF12E0A0E042
:10099000B1E0E6EAF5E602C005900D92A83AB1078B
:1009A000D9F727E0A8EAB2E001C01D92A639B20744
:1009B000E1F70E94372A0C945E320C94000090916B
:1009C0008305937061F081110BC09460909383054F
:1009D0001092540180918205816080938205089570
:1009E0008F3110F09867F2CF880F880F982BEECFD9
:1009F000482F20917A059091410557E0291302C0B4
:100A000080E0089530E0529FF001539FF00D1124D3
:100A1000EE5BFA4F8181681306C08081481303C0E2
:100A200085818111EECF2F5F3F4F2770E7CF9091E7
:100A30008305937059F080938405609385054093F6
:100A40008605809182058160809382050895E8ED96
:100A5000F0E080818E7F80831092E2001092DA00B5
:100A60001092E100A0EEB0E08C9181608C938081C7
:100A70008F77808319BCA7EDB0E08C918E7F8C932B
:100A800080818F7E808310922A0508952091E40052
:100A90003091E50095E6A9012091EC00822F81704C
:100AA00020FF06C08091E80080FF06C080E0089526
:100AB0002091E80022FD1AC080913705882389F033
:100AC000853089F08091EB0085FD0FC02091E40016
:100AD0003091E50042175307F9F29150E1F684E0B6
:100AE000089582E0089583E0089581E0089580915B
:100AF000390587FF13C08091E80082FF06C080910E
:100B0000E8008B778093E80004C08091370581115D
:100B1000F2CF0895809137058823D9F38091E800BA
:100B200080FFF8CF8091E8008E77ECCF982F9093DC
:100B3000E900242F762F50E0891731F07091EC00F6
:100B40002091ED005091F00021FD07C09F5F97308C
:100B500071F78093E90081E008953091EB003E7FCA
:100B60003093EB003091ED003D7F3093ED003091FC
:100B7000EB0031603093EB007093EC002093ED00BC
:100B80005093F0002091EE0027FDE0CF80E0089523
:100B9000B0E0A0E0EEECF5E00C949A31C8EDD0E0C6
:100BA00088818F7E8883E7EDF0E08081816080839B
:100BB00084E082BF81E080932A0588818E7F8883CC
:100BC00002EE10E0F80110821092DA0081EEC82ED9
:100BD000D12CF601108288818F7788838881806884
:100BE000888388818F7D888319BC10923705109285
:100BF0003805109236051092350590EEE92EF12C4D
:100C0000F70180818B7F808388818160888342E0C7
:100C100060E080E00E949605F60180818E7F8083EF
:100C2000F801808181608083808188608083F70102
:100C300080818E7F8083888180618883CDB7DEB795
:100C4000E8E00C94B631FC0180913F05909140059D
:100C500086179707A0F06115710529F49091E800B7
:100C60009E779093E80090E06115710551F4911121
:100C700008C08091E80082FF34C080E00895BC0184
:100C8000F2CF809137058823C1F18530C1F1809181
:100C9000E80083FD30C08091E80082FDEACF8091BA
:100CA000E80080FFE1CF8091F3002091F200382F1F
:100CB0006115710519F02830310558F091E02830A0
:100CC000310509F090E02091E8002E772093E800AC
:100CD000CBCF81918093F100615071092F5F3F4F1D
:100CE000E7CF80913705882341F0853041F080912E
:100CF000E80083FFBECF81E0089582E0089583E09D
:100D00000895089580912C05089587E797E79093BB
:100D100001088093000888E19AE00FB6F894A8953E
:100D2000809360000FBE90936000FFCF2FB7F894C0
:100D300060912605709127058091280590912905DD
:100D40002FBF08959C01FC0132969FEF80E04191F6
:100D5000461751F09F3F19F4411101C0982F8F5F42
:100D60008630A9F79F3F09F40895290F311D97FD9B
:100D70003A95F90162830895A3E0B0E0E2ECF6E071
:100D80000C94A031209123053091240528173907B0
:100D9000A1F09093240580932305E0912105F09123
:100DA0002205309751F024E029839B838A830084B5
:100DB000F185E02DCE01019609952396E2E00C9491
:100DC000BC31A3E0B0E0E7EEF6E00C94A031209156
:100DD0001F053091200528173907A1F090932005B1
:100DE00080931F05E0912105F0912205309751F085
:100DF00023E029839B838A830084F185E02DCE0143
:100E0000019609952396E2E00C94BC3180911D0572
:100E1000882359F0E0912105F0912205309729F0BF
:100E20000190F081E02D0995089580E0089580916A
:100E3000120580FD16C081FD16C082FD16C080918E
:100E400011058823A1F0883280F428E0829FC00138
:100E5000112468E270E00E94D331862F672B39F0AD
:100E6000089582E0089584E0089588E0089581E07F
:100E700008958091120580FD14C081FD14C082FD8B
:100E800016C080911005882381F08E3180F420E512
:100E9000829FC00111246EE170E00E94D331862F41
:100EA000089584E1089588E2089588E0089580E532
:100EB0000895282F35EB2303C001112497FF04C0A8
:100EC00080589109892F089580589F4FFBCFFC01CE
:100ED000680F791F8FEF91E32191822728E030E09E
:100EE00087FF09C0880F892721503109C9F7E61704
:100EF000F70791F70895880FF7CF90E06623A1F0E8
:100F0000815B9E4FFC0120812F3F89F0E22FE2950B
:100F1000EF70F0E080A190E02F7002C0959587956A
:100F20002A95E2F781700895825B9E4FEBCF80E0B7
:100F3000089590E06623E9F0815B9E4FFC0180817B
:100F40008F3FB1F0E82FE295EF70F0E041A18F7094
:100F500021E030E0B90102C0660F771F8A95E2F701
:100F6000CB01962F9095942391A392A1892B82A3D4
:100F70000895825B9E4FE2CF90910A05E92FF0E041
:100F80009F012F5F3F4F2370332740910B0542177E
:100F9000130681F0E45FFA4F282F2F778081807845
:100FA000822B60FB87F980839F5F937090930A0583
:100FB00081E0089580E00895FA01811101C0FB01EC
:100FC0000995089530911E05311123C08D31910589
:100FD0001CF14D97FC01EE0FFF1FDF01A80FB91F99
:100FE000AE5CBB4F11963C911197361307C03C91F4
:100FF000341304C012963C91321771F031E03093F3
:101000003104E80FF91FEE5CFB4F618340832283BC
:1010100003C08D319105F4F20895109231040895C2
:10102000E3E8F5E0248130E1231B08F420E0248389
:10103000809182058160809382050895E3E8F5E060
:10104000248130E1230F08F42FEF2483809182055F
:101050008160809382050895E3E8F5E0438120E113
:10106000421B08F440E08181628190E00E941705F4
:101070000895E3E8F5E0438120E1420F08F44FEFE3
:101080008181628190E00E9417050895E3E8F5E010
:10109000628120E1621B08F460E08181438190E07D
:1010A0000E9417050895E3E8F5E0628120E1620FF0
:1010B00008F46FEF8181438190E00E941705089545
:1010C000E3E8F5E08181438162818850990B0E94B9
:1010D00017050895E3E8F5E0818190E0438162819E
:1010E00008960E9417050895809183058695869538
:1010F000815009F48EE10E94DF04089580918305F8
:10110000869586958F5F8F3108F081E00E94DF041D
:1011100008959CE0899F802D1124980F9B3308F03F
:101120009AE320911E05222321F09E3128F09DE1B3
:1011300008958D3108F48DE10895E42FF0E0EE0F6D
:10114000FF1FE650FE4F9081921B97FD9195292F2E
:1011500038E1239F212D1124620F08950F931F93CF
:1011600010E0F801EE0FFF1FE650FE4F9081905700
:1011700097FD9195000F111FF801E254FE4F05AD48
:101180000052110B2003F001219FF00D112408E300
:1011900010E0091B110997FD139540039001419F31
:1011A000300D1124E20FF31F9F01220F331F2E0F6A
:1011B0003F1F37FF02C021583F4F220F232F221F0E
:1011C000330B620F1F910F9108950F931F93522FAE
:1011D00010E0F801EE0FFF1FE254FE4FA5ADA05244
:1011E000BB0B9D015203F001539FF00D1124000F22
:1011F000111FD801A650BE4F0C910057110B400390
:101200009001419F300D11242E0F3F1F37FF02C068
:10121000215C3F4F96E0359527959A95E1F7620F4F
:101220001F910F9108950F931F93522F10E0F80113
:10123000EE0FFF1FE254FE4FA5ADA052BB0B9D0168
:101240005203F001539FF00D1124000F111FD8011C
:10125000A650BE4F0C910057110B40039001419FC7
:10126000300D11242E0F3F1F37FF02C021583F4F72
:10127000220F232F221F330B620F1F910F9108950E
:10128000EF920F93972F23E0029FB00111247595E1
:1012900067956E0D792F0F91EF900895322F50E0E2
:1012A000FA01EE0FFF1FE254FE4F95AD905297FDED
:1012B0009195440F551FFA01E650FE4F2081231BE4
:1012C000330B290F311D97FD3A95620F0895E42FD6
:1012D000F0E0EE0FFF1FE254FE4F65AD621B089574
:1012E000E42FF0E0EE0FFF1FE650FE4F6081621B1F
:1012F0000895622F0895E42FF0E0EE0FFF1FE650EF
:10130000FE4F408134EE439F412D1124E82FF0E041
:1013100050E0445E5F4FDA01A21BB1099D01B7FFA7
:1013200003C031952195310993E0220F331F9A951F
:10133000E1F7AF01421B530B9A0157FD20E0582FF4
:10134000259F212D1124822F0895E42FF0E0EE0F28
:10135000FF1FE650FE4F408134EE439F412D112484
:10136000E72FF0E050E0445E5F4FDA01A21BB109C5
:101370009D01B7FF03C031952195310993E0220FFC
:10138000331F9A95E1F7AF01421B530B9A0157FDAA
:1013900020E0279F212D1124722F08950E94E2073B
:1013A0000895FF920F931F93CF93DF93182F062F6B
:1013B000F42ED0E0C0E02F2D402F612FCE010E94EF
:1013C000CE092196CA33D105B1F7CDB7DEB7E5E036
:1013D0000C94B931FC019B01009729F480E077FF60
:1013E0002BC080E80895AC0197FF04C0442755271F
:1013F000481B590BB901640F751F37FD10C0241B22
:10140000350BC901A5E0880F991FAA95E1F70E9445
:10141000D33180E2861BF7FF0FC081950895CB0181
:1014200065E0880F991F6A95E1F7BA01621B730B9B
:101430000E94D33180E6EECF0895EF920F93CF93C1
:10144000DF93D72FC82FC9010E19BA010E94EA09EC
:10145000602F681B7D2F8C2FDF91CF910F91EF9024
:1014600008950F93CF93DF93D72FC82FC901BA01E7
:101470000E94EA09682F600F7D2F8C2FDF91CF919A
:101480000F910895EF920F931F93CF93DF93D62F71
:10149000C72F182FC9010E19010FBA010E94EA09BE
:1014A000081B202F219F212D1124822F6D2F7C2F8F
:1014B000DF91CF911F910F91EF900895EF920F93CD
:1014C0001F93CF93DF93D62F172FC82FC9010E1963
:1014D000070FBA010E94EA09702F781B719F712DC6
:1014E00011246D2F8C2FDF91CF911F910F91EF90D1
:1014F00008950F931F93CF93DF93D62FC72F182FE5
:10150000C901212F201B022FBA010E94EA09982F3E
:10151000990F990F891B800F282F219F212D1124AE
:10152000822F6D2F7C2FDF91CF911F910F91089506
:101530000F931F93CF93DF93D62F172FC82FC90177
:10154000272F201B022FBA010E94EA09982F990F1A
:10155000990F782F791B700F719F712D11246D2FAA
:101560008C2FDF91CF911F910F910895E82F86FD69
:10157000E0952E2F2F7086FD2F5FE695E695E69578
:10158000E670F0E0E255FE4F9181929F902D212D63
:10159000112492959F702295207F922B2081920F8B
:1015A00087FD919580E8890F08950F931F93CF933E
:1015B000DF938B01D82FC42F822F0E94B60AEC2F05
:1015C000F0E0EE0FFF1FE650FE4F90819058890F1C
:1015D00087FD8195880F682F2CE0629F612D112473
:1015E000600F712F8D2FDF91CF911F910F91089573
:1015F000409143015091440125E038E0429FC001F1
:10160000439F900D529F900D1124875E994C9093AB
:10161000440180934301890F0895AC018230910504
:1016200008F408959FEF413E8EE1580740F49A0177
:1016300095E0369527959A95E1F798E0920F61E04D
:10164000E62FE90FFF27FF1F9F0135952795822F72
:10165000229FF001239FF00DF00D11244E175F071C
:1016600038F49FEF920F961758F78FEF860F089573
:101670002F3FE9F361E0620FF6CF0F93CF93DF9333
:10168000D72FC82F47FD419588E390E0841B91092F
:1016900047FD9395889FB001899F700D700D1124AF
:1016A000229FC001239F900D900D1124860F971F3C
:1016B0000E940D0B982F990F890F682F600F7D2FB7
:1016C0008C2FDF91CF910F91089530E020E0869F1D
:1016D000212D969F200D311D1124C90108952091BF
:1016E000870530E1230F08F42FEF60E1822F90E0AF
:1016F0000E94650BBC0188EB9BE00E947C3190E06E
:1017000080E00895982F80911E05882329F081E0BC
:101710009D3128F080E003C081E09A33D8F7089526
:10172000AF92BF92CF92DF92FF920F931F93CF930E
:10173000DF93362F472FE82FF0E0E254FE4F711170
:101740000FC0E4918E2F2E2F6E2F722FDF91CF912D
:101750001F910F91FF90DF90CF90BF90AF900895B1
:10176000C72FD0E02491F22E022F10E056E0659FA3
:10177000C0011124EFEFF0E0BF010E947C31832F04
:1017800090E0880F991F35E5369FD001379FB00D47
:1017900011248A1B9B0B982F990F980F6F01CC1A5D
:1017A000DD0AC09ED001C19EB00DD09EB00D1124A7
:1017B0008B2F499FA0011124452F55276F01C41A73
:1017C000D50AC09EA001C19E500DD09E500D11247F
:1017D0005F01A91AB108AC9E6001AD9ED00CBC9E01
:1017E000D00C1124CD2CDD24EC19FD09E09FE00183
:1017F000E19FD00DF09FD00D1124ED2F62307105C7
:10180000A1F050F46115710509F49ECF61307105A6
:1018100081F0EB2F852F98CF6430710569F080F04F
:101820006630710509F490CFF4CFE22F2B2F8D2F66
:101830008BCFE22F252F88CFEB2F822F2D2F84CF18
:101840002B2F8F2DE52F80CFB0E0A0E0EAE2FCE067
:101850000C949B318C01FC01E259FD4F808168237F
:1018600049F1D0908505D0918605C0918405EC2E74
:10187000F12C0E94F80A282FC7018C549F4F68E66C
:1018800071E00E94D3318E199F0997FD03969595BB
:1018900087959595879523706C2F289F600D11244F
:1018A0007D2D8D2F0E94900B462F282F672FC8016A
:1018B0000E94CE09CDB7DEB7E7E00C94B731EF92C6
:1018C000FF920F931F93CF93DF937C01809151017F
:1018D0000E948908C82F192F609187056695669523
:1018E00021E0620F08F46FEF80917B0590917C05F9
:1018F0000E94650B082FD0E0C11740F0812F0E9495
:10190000820BCDB7DEB7E6E00C94B831FE01E259A8
:10191000FD4F808190915201892391F0609184055F
:101920007091850580918605202F4C2FF701099530
:101930000E94900B462F282F672FCE010E94CE09C0
:101940002196DACFB0E0A0E0E8EAFCE00C94983110
:101950006C01809151010E948908C82FF92E609175
:1019600087056695669580917B0590917C050E9420
:10197000650B182F80E4810F0E94B60A90E8B92EFB
:10198000B80E812F0E94B60A20E8A22EA80ED0E041
:10199000CF1540F08F2D0E94820BCDB7DEB7EAE065
:1019A0000C94B431FE01E259FD4F808190915201B7
:1019B0008923A1F060918405709185058091860549
:1019C000E12E0C2F2A2D4B2DF60109950E94900B2C
:1019D000462F282F672FCE010E94CE092196D8CFFF
:1019E000B0E0A0E0E6EFFCE00C9494313C01809183
:1019F00051010E948908C82F192F609187056695AB
:101A000080917B0590917C050E94650BF82ED0E0BB
:101A1000CE01880F991F9C0122543E4F6901C117C6
:101A200040F0812F0E94820BCDB7DEB7EEE00C9420
:101A3000B031FE01E259FD4F80819091520189231E
:101A400079F1F60184AD282F2057330B590185AD6C
:101A5000E82FE052FF0B4F01AA9C9001AB9C300D88
:101A6000300D1124EE9FC001EF9F900D900D1124B9
:101A7000820F931F0E940D0B082F609184057091B7
:101A8000850580918605EF2C9401A501F301099548
:101A90000E94900B462F282F672FCE010E94CE095F
:101AA000F2E0CF0ED11C2196BACFB0E0A0E0EBE57A
:101AB000FDE00C9499316C01809151010E948908DC
:101AC000C82F192F60918705669580917B059091AD
:101AD0007C050E94650BB82ED0E0CE01880F991FBF
:101AE0009C0122543E4F7901C11740F0812F0E9482
:101AF000820BCDB7DEB7E9E00C94B531FE01E259B7
:101B0000FD4F8081909152018923C1F0F70125ADED
:101B10002052330B44AD4057550B609184057091B2
:101B20008505809186050B2DF60109950E94900B85
:101B3000462F282F672FCE010E94CE09F2E0EF0E2C
:101B4000F11C2196D1CF1F93CF93DF93EC01FC01C1
:101B5000E259FD4F80816823B1F00E94F80A182FE6
:101B60000E94F80A20E8829FC00111247FE7790FC4
:101B7000612F809186050E94900B462F282F672F9A
:101B8000CE010E94CE09DF91CF911F91089580E090
:101B90000895FB01808180930B050895F894E82F48
:101BA000E295EF70F0E031A1282F2F7081E090E0F6
:101BB00001C0880F2A95EAF7982F9095932391A357
:101BC00092A1892B82A3789408950F931F938091FB
:101BD0001D05882329F00E9496061F910F910895F4
:101BE0000E9496060091230310912403209125035F
:101BF00030912603600F711F821F931FEECF9091CB
:101C0000370392FF10C041E0282F2471243009F0DF
:101C100040E031E0282F2871283009F030E04317E8
:101C200011F02CE0822793FF10C041E0282F24718F
:101C3000243109F040E031E0282F2871283109F0E3
:101C400030E0431711F02CE082273091380330FF49
:101C500010C051E0282F2171213009F050E041E0FF
:101C6000282F2871283009F040E0541711F029E09E
:101C7000822731FF10C041E0282F2171213109F066
:101C800040E031E0282F2871283109F030E0431777
:101C900011F029E0822794FD877E0895823891050E
:101CA000B9F1B0F48133910509F47DC048F489326B
:101CB000910509F46DC08A32910509F47BC008953D
:101CC0008533910509F45FC08933910509F10895C1
:101CD000833E9105D9F138F4803E910529F1823E89
:101CE000910579F10895863E9105D9F1873E9105D8
:101CF00009F43EC0843E910541F52091380321FF4F
:101D000024C08091370384FD19C087EE90E00895C8
:101D100020913703237009F05AC02091380323FF24
:101D200014C089E290E008952091370320FD38C067
:101D30003091380330FF09C024FF43C090E080E0B9
:101D400008952091370322FDF7CF0895209137039E
:101D500022FD3AC03091380330FD39C024FFF5CF61
:101D6000EDCF2091370323FFF0CF24FDE7CFCDCF78
:101D70002091370323FD2EC03091380331FFEECF81
:101D800084EE90E008952091370325FFDECFC9CF80
:101D90002091370325FD21C02091380323FFD5CFA3
:101DA00089E390E0D2CF2091370326FFCECF8AE29D
:101DB00090E008952091370326FFC7CF81E390E09C
:101DC000089583EE90E0089582EE90E0089580EE0D
:101DD00090E0089586EE90E0089585E390E0089500
:101DE000972F7A30B8F46630A8F48230B0F470E0FF
:101DF00026E0929F600D711D1124FB019CE3899FD9
:101E0000E00DF11D1124EE0FFF1FE455FF4F8591EA
:101E10009491089580E090E0089581E0FCCF1F93B5
:101E2000CF93DF930E944E0EEC01C11580E5D807D9
:101E3000F0F5C11580E4D80708F09CC0C03ED1057C
:101E400020F5CD3CD10508F082C0C83AD10578F420
:101E5000C53AD10508F073C0C130D10519F12097FA
:101E600009F1C430D105F0F4D0E0C0E01BC0C33CA0
:101E7000D105D0F7C85AD0E0CC0FDD1FC55ADE4FD0
:101E80000990D881C02DD4640DC0C11580E2D80757
:101E900008F0D1C0C11581E0D80708F05AC0C83E8B
:101EA000D10510F7CE01DF91CF911F910895C03673
:101EB00082E5D80718F5C03482E5D80708F06BC072
:101EC000C03282E5D80708F05FC0C11582E5D807A7
:101ED00008F497C02C2F2695269580E2289F900124
:101EE00011248C2F8370C1E0D0E002C0CC0FDD1F25
:101EF0008A95E2F7C22BD32BDD68D4CFC03A82E5B6
:101F0000D80760F4C03882E5D80708F459C0CF710B
:101F1000D0E0DC2FCC27C46FD06AC4CFC03C82E5B0
:101F2000D80708F462C0C03E82E5D80708F09CCF0D
:101F3000DC2FCC27CC27DF71C06FD06AB3CFC55A56
:101F4000D0E0C85ADE4FC881D0E0D064ABCFD065B6
:101F5000A9CF8D2F0E94FF0D182FCE0199270E9427
:101F60004E0EC12FD0E0DC2FCC27CC27DF71C82B41
:101F7000D92B98CFCE0199270E944E0ECC27DF7027
:101F8000C82BD92BD06A8ECFCF71D0E0DC2FCC27D5
:101F9000C16FD06A87CF2C2F26952695277080E2B7
:101FA000289F900111248C2F8370C1E0D0E002C0E3
:101FB000CC0FDD1F8A95E2F7C22BD32BDC6872CFE2
:101FC0002C2F26952695277080E2289F90011124BA
:101FD0008C2F8370C1E0D0E002C0CC0FDD1F8A954A
:101FE000E2F7C22BD32BDA685DCF8C2F8F710E9462
:101FF000FF0DC82FD0E0DC2FCC27CC27DF71D062BB
:1020000051CF8C2F8F710E94FF0D55E0D695C7954B
:102010005A95E1F7CF70D0E0DC2FCC27282F30E0A5
:1020200084FF05C044E0220F331F4A95E1F7C22B1D
:10203000D32BD06937CF8D2F8F710E94FF0D182FB2
:10204000CE0199270E944E0EC12FD0E0DC2FCC2765
:10205000CC27DF71C82BD92BD2CF80959091E60287
:1020600098239093E602089580917A059091410516
:10207000981301C008958F5F8770FACFB0E0A0E099
:10208000E4E4F0E10C9499317C0100913503109166
:1020900036038091330390913403082B192BCFE042
:1020A000D0E0CC24C394D12CBC2EC6010C2E02C08F
:1020B000880F991F0A94E2F780239123892B49F412
:1020C000219790F7B12C8B2DCDB7DEB7E9E00C94BA
:1020D000B531B7018C2F0E94F00E0E940F0F0197AF
:1020E00079F3F1CFCF93DF93EC010E943E10BE0154
:1020F0000E94F00E0E940F0FDF91CF9108959A3049
:1021000078F5863068F5E82FF0E086E0989FE00DDE
:10211000F11D11249E2F977083E0F695E7958A951F
:10212000E1F7EE0FFF1FEE0FFF1FEC54FD4F50E0E5
:1021300040E080E0219130E0092E02C036952795DD
:102140000A94E2F721703327042E01C0220F0A946B
:10215000EAF7822B4F5F5F4F4430510559F70895DE
:1021600080E008959A3098F5863088F5E82FF0E001
:1021700086E0989FE00DF11D11248E2F877041E0BD
:1021800001C0440F8A95EAF783E0F695E7958A95B2
:10219000E1F7EE0FFF1FEE0FFF1FEC54FD4F30E095
:1021A00020E070E05191DF011197CB01022E02C0B7
:1021B000969587950A94E2F7817081958527842307
:1021C00085278C932F5F3F4F2430310559F70895B1
:1021D0009093360380933503089521E030E002C0E8
:1021E000220F331F8A95E2F72095309580913503B1
:1021F00090913603822393230E94E81008959091D2
:10220000DB02809589238093DB02282F277069F4F5
:10221000891759F09091380392FF07C086958695EB
:1022200086950E94ED101092DB02089521E030E0C7
:1022300002C0220F331F8A95E2F7809135039091F7
:102240003603822B932B0E94E81008959093340359
:10225000809333030895FC0124812223C1F08081FF
:1022600091810E94721092959F70963091F058F46F
:10227000925F9F70923058F4803F19F030F4883E9E
:1022800030F481E008959A5FF4CF843FD1F380E089
:102290000895883EB0F3813FD1F7F3CFA6E0B0E0D8
:1022A000E4E5F1E10C949F3149835A8349815A81D5
:1022B0009923A1F0222391F0CA010E943E10182F09
:1022C000682F89819A810E94B21069817A81812F59
:1022D0000E94F00E2696E3E00C94BB31CA010E94E6
:1022E0007F10182FF2CFCF93DF93C0919407D09136
:1022F00095078A30C1F420918B05CE018E58954008
:10230000622F70E00E947C31281B822F66E00E94C1
:10231000C731C82FC15018F4DF91CF91089580E2E2
:102320000E947311F7CF8D30E9F4CE58D54020913B
:102330008B05622F70E0CE010E947C31281B822F1A
:102340009E01280F311D2115324018F080E0D0E0A9
:10235000C0E0C80FD11DC257DA4FD0939507C09384
:102360009407DACF96E0FE01AEE8B7E001900D9257
:102370009A95E1F7803E08F458C086E0FE0111927C
:102380008A95E9F7C0919407D091950746E050E00F
:10239000BE018EE897E00E94F6319E012E5835402E
:1023A000892B41F1C90145E0969587954A95E1F75A
:1023B00041E050E0BA0102C0660F771F8A95E2F74C
:1023C000CB0160918C0570918D05862B972BB901FF
:1023D0006B5F7F4FE5E076956795EA95E1F702C080
:1023E000440F551F6A95E2F7842B952B90938D052A
:1023F00080938C052A5F3F4F40918B05642F70E0DE
:10240000C9010E947C31481B463010F4240F311D55
:10241000211572E0370710F030E020E022573A4FE4
:10242000309395072093940777CFF6E08F9FB00104
:102430001124605C7B4F46E050E0CE010E94ED31FC
:10244000A1CF2091E6028091DD02282B8091DC0251
:10245000882381F0282B30E08CEA92E0FC01419146
:10246000CF0141113F5FF2E0823B9F07B9F7311185
:102470001092DC022093AA0248E050E06EED72E078
:102480008AEA92E00E94F631892BA9F088E0EAEA14
:10249000F2E0AEEDB2E001900D928A95E1F7E091A5
:1024A0002105F0912205309731F00280F381E02D73
:1024B0008AEA92E009950895882321F00E942D1060
:1024C0000E9421120895882339F09091E602982BFA
:1024D0009093E6020E94211208950F931F93CF93C9
:1024E000DF938B01EA0190913705943061F5809379
:1024F000E9008FEF9091E800815095FD06C095EDC1
:102500009A95F1F700008111F5CF8091E80085FFE1
:102510001AC00E944605811111C08091E80085FD16
:1025200006C08091E8008E778093E800F2CFF80132
:1025300081918F018093F100219779F78091E800D4
:102540008E778093E800DF91CF911F910F910895CE
:1025500043E050E0BC0182E00E946D12089546E025
:1025600050E0BC0182E00E946D120895CF93DF938A
:10257000EC0148E050E0BC0181E00E946D1288E06F
:10258000FE01ADE2B5E001900D928A95E1F7DF9191
:10259000CF91089580913104882341F1539A3BB142
:1025A000377F2BB128604FB7F89482E394E0FC01A9
:1025B0005191CF0168E02BB9000000C057FF3BB933
:1025C000550F000000C000C000C03BB900C06A95B4
:1025D00091F7F4E0803E9F0751F74FBF8FE594E0FD
:1025E0000197F1F700C00000109231040895B0E0A7
:1025F000A0E0EDEFF2E10C9498317C015B016A01FF
:102600008091220301E010E08A3010F40AE010E02B
:10261000C1E0D0E0B501C701F6010995811104C000
:1026200021960C171D072CF4CDB7DEB7EAE00C9409
:10263000B431CC9F9001CD9F300D300D112490E02E
:1026400080E045E34A95F1F7000001968217930771
:10265000C1F7E0CFAB0124E630E0BC0188E70E947F
:10266000302F21E0892B09F020E0822F08958091FE
:10267000060590910905911103C091E089270895FD
:10268000882369F062E070E080EC92E00E942A13F7
:10269000811103C08091060508951092060580916E
:1026A0000605EBCFCF93C0910605809109058823DD
:1026B000D1F00E949606605A75418F4F9F4F6093EC
:1026C0000205709303058093040590930505C111DD
:1026D00008C062E070E08EEB92E00E942A13811144
:1026E00005C0C09106058C2FCF91089581E080939D
:1026F0000605F7CFB0E0A0E0E0E8F3E10C949031FC
:102700000E94E50D60935503709356038093570321
:102710009093580330918305232F2370722E19F064
:10272000732E76947694209154012130D9F022238F
:1027300059F0223009F450C4233009F457C4CDB7FE
:10274000DEB7E2E10C94AC311092510160937B054D
:1027500070937C0580937D0590937E0581E0809346
:102760005401EDCF9091460181E079120BC0832F87
:1027700083702091450130E091E08217130609F43F
:1027800090E0892F8170809353018091880590910A
:102790005201981739F08093520140E060E080E0E8
:1027A0000E94D1093EE1371580F0E72DF0E0E05AB4
:1027B000FD4C0C94E73180915301882309F41DC12D
:1027C00040E060E080E00E94D10980E016C1809185
:1027D00051010E948908C82F192F609184057091BA
:1027E0008505809186050E94900B062FF72EE82E16
:1027F000D0E0C11710F0812F5AC0FE01E259FD4F01
:10280000808190915201892331F02E2D402F6F2D20
:10281000CE010E94CE092196ECCF809151010E94F9
:102820008908C82F192FF090850500918605D09151
:1028300084056D2F7F2D802F0E94900BE62ED72EC2
:10284000C82E609187056D0F7F2D802F0E94900B01
:10285000062FF72EB82ED0E0C11768F6FE01E25918
:10286000FD4F908180915201892359F02B2D402FEB
:102870006F2D90FD03C02C2D4E2D6D2DCE010E948D
:10288000CE092196E9CF809151010E948908092F34
:10289000F0908505E09086052091870510E4129F51
:1028A000112D1124C82FD0E0C01720F0802F0E94D6
:1028B000820BA3C0FE01E259FD4F8081909152012D
:1028C0008923B9F0FE01EE0FFF1FE254FE4F85ADE4
:1028D00082958F7060918405819F600D11247F2DFA
:1028E0008E2D0E94900B462F282F672FCE010E941D
:1028F000CE092196D9CF809151010E948908092FD4
:10290000F0908505E09086052091870510E4129FE0
:10291000112D1124C82FD0E0C01740F6FE01E25956
:10292000FD4F8081909152018923D9F0FE01EE0F75
:10293000FF1FE254FE4F64AD169FB0011124E5E085
:1029400075956795EA95E1F780918405680F7F2D6D
:102950008E2D0E94900B462F282F672FCE010E94AC
:10296000CE092196D9CF809151010E948908C82FA4
:10297000192F00918405D0918505F090860560910E
:10298000870566956695669580917B0590917C0597
:102990000E94650B0E94B60A805887FD8195880FBA
:1029A000282F3F2D239F212D1124822F602F7D2F33
:1029B0000E94900B062FF72EE82ED0E0C11708F0EA
:1029C0001ACFFE01E259FD4F808190915201892377
:1029D00031F02E2D402F6F2DCE010E94CE09219671
:1029E000EDCF85EA99E00E945F0C07C08BE799E084
:1029F000FACF88E99AE00E94550D9091510121E0AB
:102A0000290F209351018111E4C282E08093540187
:102A1000809153018111DDC2772009F4E5C2892F2D
:102A20000E9489088CCE89E79AE0E5CF8EE59AE08E
:102A30000E94F00CE2CF82E49AE0FACF89E799E0B5
:102A4000D2CF80E799E0CFCF87E699E0CCCF8EE474
:102A500099E0C9CF80E499E0EBCF8DE39BE0CBCF49
:102A600081E39AE0C8CF8DE19AE0E2CF83E199E07B
:102A70000E94A20CC2CF85EE98E0FACF8EEA98E0D1
:102A8000F7CF809151010E948908192F909153012D
:102A9000911120C06091870520E1620F08F46FEF6B
:102AA00080917B0590917C050E94650B6AE070E047
:102AB0000E947C31892B09F09ECE0E94F80AEAE33D
:102AC0008E9FC001112460915201892F90E00E94D5
:102AD000240C91CEC82FD0E0E12EF12CCE15DF05CD
:102AE0000CF089CE60915201CE010E94240C2196F7
:102AF000F5CF809151010E948908192F90915301BF
:102B0000911120C06091870520E1620F08F46FEFFA
:102B100080917B0590917C050E94650B65E070E0DB
:102B20000E947C31892B09F066CE0E94F80AFAE3F4
:102B30008F9FC001112460915201892F90E00E9463
:102B4000A30D59CEC82FD0E0E12EF12CCE15DF0514
:102B50000CF051CE60915201CE010E94A30D21963E
:102B6000F5CF809151010E948908C82F192FF0904C
:102B7000850500918605D09184056091870566954D
:102B80006695669580917B0590917C050E94650B0A
:102B90000E94B60A805887FD8195880F682F2CE027
:102BA000629F612D11246D0F7F2D802F0E94900B4D
:102BB000062FF72EE82ED0E0C11708F01CCEFE013C
:102BC000E259FD4F808190915201892331F02E2DE1
:102BD000402F6F2DCE010E94CE092196EDCF85EDBD
:102BE0009AE001CF8DE998E0FECE809151010E94DC
:102BF0008908192F40917B0550917C0560917D05D6
:102C000070917E058091590390915A03A0915B03C6
:102C1000B0915C0384179507A607B70708F0EBCDC2
:102C20000E94F80A3AE3839FE0011124CD2FDD27AB
:102C3000FE01E259FD4F808190915201892309F4F0
:102C4000DACD0E94F80A81FD3BC00E94F80A082FE5
:102C50000E94F80AE0E88E9FC00111247FE7790FF7
:102C600080918605602F0E94900B462F282F672F9A
:102C7000CE010E94CE092091870530E1230F08F490
:102C80002FEF60E1822F90E00E94650BBC0184EF82
:102C900091E00E947C3180917B0590917C05A09110
:102CA0007D05B0917E05860F971FA11DB11D8093F4
:102CB000590390935A03A0935B03B0935C039BCD9D
:102CC00080E070E000E0CECF40910B0450910C0406
:102CD00060910D0470910E0480917B0590917C05AC
:102CE000A0917D05B0917E0584179507A607B707CB
:102CF00008F46BCD80915301811147C0809151013F
:102D00000E948908192FE82EF12CF3E08F9FE00133
:102D10001124C35ADC4FE11608F46DC0812F0E94C4
:102D2000820B811168CD20E0812F8150990B7C01AD
:102D3000822F90E08E159F050CF470C00E94F80A57
:102D4000E701CC0FDD1F81FF80C0CE0DDF1DC35A10
:102D5000DC4F188219821A820E946F0BC0907B058B
:102D6000D0907C05E0907D05F0907E05DC01CB01E4
:102D70008C0D9D1DAE1DBF1D80930B0490930C0404
:102D8000A0930D04B0930E0436CD40E060E080E0E7
:102D90000E94D1090DE513E0D0E0C0E00E94F80ADE
:102DA00081FF0BC0F80110821182128221960D5F03
:102DB0001F4FCA33D10591F7A1CF0E94F80AD82E30
:102DC0000E94F80AF0E88F9FC00111247FE7790F75
:102DD0007E01EE0CFF1CEC0EFD1E9701235A3C4FAA
:102DE00079016D2D809186050E94900BF70160831B
:102DF00071838283DBCFF701E259FD4F808190918F
:102E00005201892331F02A8148816981C7010E94DA
:102E1000CE092396FFEFEF1AFF0A7DCFFC01EE0FDC
:102E2000FF1FE80FF91FE35AFC4F0196DC01AA0FC0
:102E3000BB1FA80FB91FA35ABC4F8D919D91AC9198
:102E400080839183A2832F5F73CF0E94F80A082F9B
:102E50000E94F80AE0E88E9FC00111247FE7790FF5
:102E6000CE0DDF1DC35ADC4F602F809186050E9476
:102E7000900B688379838A836FCF80915301882375
:102E800029F040E060E080E00E94D109809151018A
:102E90000E948908392E40917B0550917C056091F4
:102EA0007D0570917E0580912D0490912E04A09156
:102EB0002F04B091300484179507A607B70708F0D0
:102EC00074C06091840570918505809186050E948B
:102ED000900B662E572E482E0FE014E0CEEBD1E07B
:102EE0005E014E017801212C02C022242394F701B7
:102EF00021917F01F40181914F0190E0F501C5809E
:102F0000D12C222309F453C0242D462D652D0E9477
:102F1000CE09242D462D652DC6010E94CE09F7014C
:102F2000808131978083F1E0AF1AB10821E022124D
:102F3000DCCF8A8190E0EB80F12CF8012281222302
:102F400009F43EC0242D462D652D0E94CE09242D66
:102F5000462D652DC7010E94CE090E94F80A837094
:102F600091E009F090E0F80192830D5F1F4F2696E3
:102F7000F1E0CA3FDF0709F0B3CF0E946F0B009169
:102F80007B0510917C0520917D0530917E05DC014B
:102F9000CB01800F911FA21FB31F80932D0490932C
:102FA0002E04A0932F04B0933004832D80CC20E016
:102FB00040E060E00E94CE0920E040E060E0ACCF5D
:102FC00020E040E060E00E94CE0920E040E060E0C8
:102FD000C1CF711024CDB3CB70924601832F837083
:102FE000809345010E94CA1283E0B9CB809182058B
:102FF000882351F048E050E068E170E083E895E014
:103000000E942A3210928205C0907B05D0907C05E8
:10301000E0907D05F0907E0580911D058823C1F02C
:103020002FB7F894609126057091270580912805A7
:10303000909129052FBF6C197D098E099F09603178
:1030400071058105910508F47ACB1092540177CB74
:103050000E94E50DF0CF9091380392FB222720F9D2
:10306000281779F080FB92F9909338036091370329
:103070007091380384E090E00E94583282E00E9410
:10308000FF100895B0E0A0E0E8E4F8E10C949B3173
:103090007901C82F880FDD0B41155105A9F0FE01FC
:1030A00093E0EE0FFF1F9A95E1F7E050FF4F81810B
:1030B00092818D509D4F208130E04217530708F4D4
:1030C0009A01A9010E940332CE010E940631D82E36
:1030D0008823D1F001151105B9F083E0CC0FDD1F75
:1030E0008A95E1F7FE01E050FF4F438150E004175D
:1030F000150708F4A801C050DF4F6C817D816D5029
:103100007D4FC7010E9403328D2DCDB7DEB7E7E0BA
:103110000C94B731A9E0B0E0E0E9F8E10C949E31FD
:1031200088E0E3E8F5E0DE01119601900D928A95C2
:10313000E1F7198649E050E064E073E0CE010196C2
:103140000E94F63100911E0310911F03209120036D
:1031500030912103EFB7F89440912605509127054F
:103160006091280570912905EFBF401B510B620B40
:10317000730B443651056105710518F411E0892B74
:10318000C9F010E000E030E020E049E050E0BE018E
:103190006F5F7F4F86E00E944218182F882351F0FE
:1031A0000E94960660931E0370931F038093200372
:1031B00090932103812F2996E4E00C94BA31A4E086
:1031C000B0E0E5EEF8E10C949E3140911A03509185
:1031D0001B0360911C0370911D032FB7F89480911D
:1031E000260590912705A0912805B09129052FBFAC
:1031F000841B950BA60BB70B11E084369105A10536
:10320000B10518F10E94E50D6E5F7F4F8F4F9F4F04
:1032100069837A838B839C8310E000E030E020E0B8
:1032200044E050E0BE016F5F7F4F85E00E9442188E
:10323000182F882351F00E94960660931A0370930A
:103240001B0380931C0390931D03812F2496E4E0BD
:103250000C94BA31A1E0B0E0E0E3F9E10C949531CF
:10326000762E4A015901680101E010E09E012F5FAE
:103270003F4F50E040E070E060E00E944218182F9D
:10328000882309F440C0F401408151816281738137
:103290002FB7F8948091260590912705A0912805D5
:1032A000B09129052FBF841B950BA60BB70B843655
:1032B0009105A105B10538F4B701C6010E94670761
:1032C0009981891701F18701950150E040E070E094
:1032D00060E0872D0E944218B82EB701C6010E94F7
:1032E000670711E09981981310E01B2139F00E94C3
:1032F0009606F4016083718382839383812F2196E4
:10330000EDE00C94B131A701B601C5010E94033272
:10331000F5CFA6E0B0E0EFE8F9E10C949C3186E04F
:10332000E82EF12C0AEF12E09E012F5F3F4F46E19D
:1033300053E063E082E00E942A19F82E8823C9F046
:103340009091FB028091FA02981318C010E000E0FF
:1033500030E020E041E050E06BEF72E084E00E945A
:10336000421866E070E08AEF92E00E94670780935F
:10337000F9028F2D2696E6E00C94B831292F30E023
:10338000F901ED50FD4F61852B503D4FF9018781CB
:103390009F5F93709093FB02661F6627661F8F776F
:1033A0000E94BC07CDCFA5E0B0E0E9EDF9E10C94B7
:1033B0009A316B0185E0E82EF12C04EF12E09E01BA
:1033C0002F5F3F4F42E153E061E080E00E942A1905
:1033D000882349F095E0FE013196ADE0B3E001901D
:1033E0000D929A95E1F795E0EDE0F3E0D6010190BA
:1033F0000D929A95E1F72596E8E00C94B6311F926C
:103400000F920FB60F9211242F933F934F935F9318
:103410006F937F938F939F93AF93BF93EF93FF939C
:103420008091E10082FF09C08091E20082FF05C027
:103430008091E1008B7F8093E1008091DA0080FF32
:1034400024C08091D80080FF20C08091DA008E7F58
:103450008093DA008091D90080FF9DC080E189BD12
:1034600082E189BD09B400FEFDCF81E0809337057C
:1034700080912A05811109C00E9427050E94C80574
:103480008091E20084608093E2008091E10080FFFF
:1034900017C08091E20080FF13C08091E2008E7F10
:1034A0008093E2008091E20080618093E20080914D
:1034B000D80080628093D80019BC85E080933705DE
:1034C0008091E10084FF2BC08091E20084FF27C03F
:1034D00080E189BD82E189BD89B5982F917080FF17
:1034E000FBCF8091D8008F7D8093D8008091E10040
:1034F0008F7E8093E1008091E2008F7E8093E200D6
:103500008091E20081608093E200809138058823F9
:1035100009F447C084E08093370580913705809196
:10352000E10083FF27C08091E20083FF23C08091E8
:10353000E100877F8093E10082E08093370510925D
:1035400038058091E1008E7F8093E1008091E20058
:103550008E7F8093E2008091E20080618093E200A0
:1035600042E060E080E00E9496058091F000886073
:103570008093F000FF91EF91BF91AF919F918F9158
:103580007F916F915F914F913F912F910F900FBE5F
:103590000F901F90189519BC1092370510922A05AC
:1035A00074CF8091E30087FD93E090933705B5CF0A
:1035B00078941F921FB61F9211248F939F93AF93FD
:1035C000BF938091260590912705A0912805B09181
:1035D00029050196A11DB11D80932605909327050D
:1035E000A0932805B0932905BF91AF919F918F912A
:1035F0001F901FBE1F9018959C014FB7F8948091A3
:10360000260590912705A0912805B09129054FBF67
:10361000821B930B08952FB7F89480912605909103
:103620002705A0912805B09129052FBF08950E9474
:103630000B1B9C019091190580911A05982B21F084
:10364000309316052093150590911B0580911C055C
:10365000982B21F03093140520931305E091210558
:10366000F0912205309749F082E08093170506809B
:10367000F781E02D87E195E009950895CF931092A9
:10368000E602C6E0ECEAF2E0DF018C2F1D928A959B
:10369000E9F790E080E00E94E10690E080E00E947F
:1036A000BC061092DD020E942112E7E1F5E0DF0185
:1036B0001D92CA95E9F7109210051092110510920B
:1036C00012050E94171BCF910895AAE2B0E0EBE625
:1036D000FBE10C949F3189E395E02091F100FC011E
:1036E0002193CF01F5E081349F07B9F780913A0526
:1036F000833009F470C0B8F4813009F447C08230D7
:1037000009F4B1C08091E80083FF7EC28091390541
:1037100090913A059A3008F077C2E92FF0E0E1582D
:10372000FD4C0C94E7318A3009F48CC08B3009F4DD
:103730006FC0893039F780913905813219F780914E
:103740003D0590913E050297E8F68091E800877F5D
:103750008093E8008091E80082FF38C09091F300E8
:103760008091F200029731F48091F100813011F0E4
:10377000863021F48091F10080932C058091E8003F
:103780008B778093E8000E947705BCCF8091390544
:10379000813A09F0B7CF8091E800877F8093E800F5
:1037A00080913D0590913E05892B61F468E08DE2A2
:1037B00095E070E00E9423068091E8008B7780936B
:1037C000E800A0CF60E090E080E0F3CF8091370583
:1037D0008111C0CF97CF80913905813A09F092CFFE
:1037E00080913D0590913E05892B09F08BCF80910A
:1037F000E800877F8093E8008091E80080FFFCCF9D
:10380000809150018093F1008091E8008E77B9CFCC
:1038100080913905813209F075CF80913D059091F5
:103820003E05892B09F06ECF8091E800877F809359
:10383000E8000E94770580913B05809350010E942B
:103840003E1B60CF80913905813209F05BCF8091BA
:10385000E800877F8093E8000E94770580913C050F
:1038600080932B054FCF80913905813A09F04ACFDB
:103870008091E800877F8093E8008091E80080FFD6
:10388000FCCF80912B05BECF803899F0823809F0AB
:10389000BBC180913D058F70873008F0B5C1809322
:1038A000E9008091EB0085FB882780F91092E90000
:1038B00006C08091350590913605911182609091F6
:1038C000E800977F9093E8008093F1001092F10058
:1038D0008091E8008E7794C1882309F482C18230F8
:1038E00009F092C180913B05811185C180913D0510
:1038F0008F702FEF280F263008F086C18093E900E3
:103900002091EB0020FF77C1933031F48091EB00E0
:1039100080628093EB006FC19091EB009061909377
:10392000EB0021E030E001C0220F8A95EAF72093F6
:10393000EA001092EA008091EB008860EACF8111E2
:1039400063C110913B051F778091E3008078812B44
:103950008093E3008091E800877F8093E8000E94D5
:1039600077058091E80080FFFCCF8091E3008068BC
:103970008093E30082E0111183E08093370544C116
:103980008058823008F040C180913B0590913C0501
:103990008C3D23E09207A1F583E08A838AE2898344
:1039A0004FB7F894DE01139620E03EE051E2E32F9A
:1039B000F0E050935700E49120FF03C0E295EF70D0
:1039C0003F5FEF708E2F90E0EA30C0F0C7968D9386
:1039D0009D932F5F243159F74FBF8091E800877F77
:1039E0008093E8006AE270E0CE0101960E9423060F
:1039F0008091E8008B778093E80006C1C096E7CFFE
:103A000040913D0550913E05292F33272330310544
:103A100009F444C078F52130310509F46FC08BE317
:103A200090E0E1ECF3E02230310509F0EDC02091A7
:103A3000E800277F2093E80020913F053091400562
:103A40008217930708F49C0140E02115310509F025
:103A500064C0411162C08091E80082FDC9CF8091AD
:103A60003705882329F2853019F28091E80083FF19
:103A7000F2CFBECF21323105A9F12232310509F052
:103A8000C3C04115510509F443C04130510509F047
:103A9000BBC08BE790E0E2E0F3E0C9CF992781302B
:103AA0009105C1F0009759F0029709F0ADC0EEE022
:103AB000F4E0E4918E2F90E0EEE0F4E007C0ECE358
:103AC000F4E0E4918E2F90E0ECE3F4E0009709F449
:103AD0009BC0ADCFE6E2F4E0E4918E2F90E0E6E209
:103AE000F4E0F4CF4115510571F04130510509F072
:103AF0008BC089E090E0ECEEF3E099CF82E190E0BA
:103B0000ECEFF3E094CF89E090E0E3EDF3E08FCFCA
:103B100084E490E0EDE7F3E08ACF809137058823D5
:103B200009F466CF853009F463CF8091E80083FD06
:103B30005FCF8091E80082FD8ECF8091E80080FF0A
:103B400084CF9091F3008091F2002115310519F096
:103B50008830910550F041E0089709F040E08091ED
:103B6000E8008E778093E80070CF44914093F10095
:103B70003196215031090196E8CF803809F044C0D0
:103B80008091E800877F8093E800809138058093DA
:103B9000F1009ECE811138C010913B051230A0F586
:103BA0008091E800877F8093E800109338050E9499
:103BB0007705112311F084E005C08091E30087FDB3
:103BC000FACF81E08093370542E061EC81E00E940A
:103BD000960542E261EC82E00E94960580913705ED
:103BE00013C080913B05813079F481E0933009F076
:103BF00080E0809336051092E9008091E800877F8D
:103C00008093E8000E9477058091E80083FF0AC056
:103C10008091E800877F8093E8008091EB008062CC
:103C20008093EB00AA96E3E00C94BB311F920F92B5
:103C30000FB60F9211242F933F934F935F936F937F
:103C40007F938F939F93AF93BF93CF93DF93EF9324
:103C5000FF93D091E900DF708091EC00C82FC17014
:103C600080FDC0E81092E9008091F000877F80938A
:103C7000F00078940E94651B1092E9008091F0009A
:103C800088608093F000CD2BCF70C093E900FF9146
:103C9000EF91DF91CF91BF91AF919F918F917F91E4
:103CA0006F915F914F913F912F910F900FBE0F90A9
:103CB0001F9018950E943E1B2FEF84E39CE021503B
:103CC00080409040E1F700C0000088E19AE00FB624
:103CD000F894A895809360000FBE90936000FFCF8A
:103CE0004091190590911B0520911C05662309F44C
:103CF00069C0942B922B20911A05922B31F098E0F9
:103D00009093100591E0909311058D3C41F40E9431
:103D10003907819580931A050E94171B08958E3CE0
:103D200019F40E943907F6CF8F3C31F40E9439070D
:103D3000819580931905F0CF803D19F40E943907D1
:103D4000F8CF893D29F40E94170780931B05E4CF23
:103D50008A3D21F40E9417078195F7CF8B3D31F4FE
:103D60000E941707819580931C05D6CF8C3D19F4CE
:103D70000E941707F8CF9FE2980F983070F4815D8A
:103D8000990B21E030E001C0220F8A95EAF780917B
:103D90001805822B80931805BFCF8D3D31F480919B
:103DA0001205816080931205B7CF8E3D21F480917A
:103DB00012058260F7CF8F3D09F0AECF80911205DA
:103DC0008460F0CF8D3C59F480911A0587FF0DC0B7
:103DD00010921A0541110BC01092100508C08E3CBC
:103DE00081F480911A0518169CF3442381F0809188
:103DF0001B0590911C05892B09F08ECF109211059F
:103E00008BCF8F3C49F447FFF0CF1092190580917A
:103E10001A058111ECCFE0CF803D19F41416ACF3F4
:103E2000E4CF893D29F4191604F710921B05DDCF64
:103E30008A3D19F497FFD9CFF8CF8B3D29F427FF9E
:103E4000D4CF10921C05D1CF8C3D19F41216CCF3AF
:103E5000CCCF9FE2980F983090F4815D990B21E0D0
:103E600030E0B90102C0660F771F8A95E2F7CB01F7
:103E7000809590911805892380931805B6CF8D3DC4
:103E800031F4809112058E7F80931205AECF8E3D66
:103E900021F4809112058D7FF7CF8F3D09F0A5CFDA
:103EA000809112058B7FF0CF8823D1F19CEF980F82
:103EB000913A78F4ECEAF2E09191891303C0DF01C2
:103EC00011971C9292E0E23BF907B1F70E94211290
:103ED000089590E2980F983050F4877091E001C0F7
:103EE000990F8A95EAF7892F0E942D10EFCF9BE555
:103EF000980F933028F490E080E00E94E106089546
:103F000098E5980F9B3128F490E080E00E94BC0671
:103F1000089593E3980F933118F460E00E94701EA7
:103F20000895CF93C82F8823B1F08CEF8C0F813A7E
:103F300000F5ECEAF2E082EB92E0DF012D91C2178E
:103F400061F08A179B07D1F76C2F8AEA92E00E94F2
:103F5000A2060E942112CF9108952191C21303C09D
:103F6000DF0111971C928E179F07B9F70E9421124B
:103F7000EBCF80E28C0F883068F4C77021E030E02E
:103F800001C0220FCA95EAF78091E602822B809346
:103F9000E602DFCFEBE5EC0FE33040F4F0E0E85A67
:103FA000FE4F808190E00E94E106D5CFE8E5EC0F5E
:103FB000EB3150F4F0E0EE0FFF1FE55AFE4F808129
:103FC00091810E94BC06C7CF83E38C0F833118F622
:103FD00061E08C2F0E94701EBECF0F931F93CF9372
:103FE000DF93C62FD42F022FFC0185818823A9F0EF
:103FF000609381050E940B1B9093800580937F0541
:10400000C77081E001C0880FCA95EAF70E94631269
:10401000DF91CF911F910F910895809181056813D1
:1040200035C080917F05909180050E94FC1A883CE4
:10403000910560F510E21D0FCD17B9F080E28C0FED
:10404000883040F4C77081E001C0880FCA95EAF754
:104050000E945C12183048F481E09D2F977001C0D7
:10406000880F9A95EAF70E946312802F0E94911F91
:10407000802F0E94541F183058F6D77081E001C07D
:10408000880FDA95EAF70E945C12C2CFC77081E010
:1040900001C0880FCA95EAF7F6CF80E090910B0532
:1040A00020910A05921301C00895E92FF0E0E65F20
:1040B000FA4F82819F5F937090930B0587FF0EC02C
:1040C00089EA0E94911F8FE39CE90197F1F700C0F4
:1040D000000089EA0E94541F81E0E0CF8AEA0E9432
:1040E000911F8FE39CE90197F1F700C000008AEA75
:1040F000F1CFB0E0A0E0EFE7F0E20C9498318C0152
:10410000FC018481882341F121E040815181628159
:10411000738195810E944E11EC01FC01E851FC472E
:10412000E730F105A8F5E757FD4C0C94E73126E29E
:1041300041EE61EEC8010E94ED1F8091DB028770A5
:1041400059F0F8018581882339F08091380382FF86
:1041500003C082E00E94FF10CDB7DEB7EAE00C9406
:10416000B43127E245EE65EEE5CF26E241EE60EEA2
:10417000E1CF27E245EE64EEDDCF26E241EE62EECE
:10418000D9CF27E245EE66EED5CF28E241E0EBCF6E
:10419000F8018581882309F4C4C310928105CE01FA
:1041A0009057839708F0A7C384E090E00E942432E0
:1041B0009093380380933703FE01E150F047E232D9
:1041C000F10520F4E057FD4C0C94E7318091370362
:1041D00081608093370395C0809138038860809315
:1041E00038038FC0809137038260F3CF809137030B
:1041F0008460EFCF809137038860EBCF80913803E4
:104200008160EDCF809138038260E9CF80913703E0
:104210008061DFCF809137038062DBCF80913703ED
:104220008064D7CF0E943E1B809137038068D1CF36
:10423000809137038C60CDCF809138038360CFCFDE
:10424000809137038E7FC5CF80913803877FC7CF9A
:10425000809137038D7FBDCF809137038B7FB9CF9E
:1042600080913703877FB5CF809138038E7FB7CF9A
:10427000809138038D7FB3CF809137038F7EA9CF94
:10428000809137038F7DA5CF809137038F7BA1CF9E
:104290000E943E1B809137038F779BCF809137031D
:1042A000837F97CF809138038C7F99CF809137039C
:1042B00082FB992790F921E0922790FB82F990FBED
:1042C00083F987CF80913803982F909591708E7FD6
:1042D000892B90FB81F983CF90913703892F8F7BB6
:1042E00096FF806476CF0E943E1B90913703892F02
:1042F00097FB87F980586DCF61E08EE090E00E94D7
:104300003A32609137037091380384E090E00E9464
:1043100058320E943E1B11CF60E0EFCF90913703DF
:10432000892F8F7E94FF806154CF90913703892F1E
:104330008E7F90FF81604DCF90913803892F877FCA
:1043400093FF88604CCF85E3F5C28091830591E0AF
:1043500089278093830510925401809182058160A2
:1043600080938205EACE44E758E06EE778E00E9449
:10437000DC07E3CE4EE758E064E778E0F8CF40E6AC
:1043800058E06AE678E0F3CF4AE658E060E678E085
:10439000EECF46E458E063E578E0E9CF43E558E046
:1043A00066E478E0E4CF4CE258E069E378E0DFCF00
:1043B00049E358E06CE278E0DACF40E158E06EE1A2
:1043C00078E0D5CF4EE158E060E178E0D0CF81E0F1
:1043D0000E94DF04B2CE85E0FBCF8DE0F9CF82E111
:1043E000F7CF0E943E1BFFEF24E33CE0F15020405A
:1043F0003040E1F700C000000E9485066FEF7FEFBC
:1044000090E080E00E9458320E945A1E809138034A
:1044100082FB882780F991E089270E942B18F801F8
:104420008581C081D181882309F44DC0CE010E94CD
:104430003E10F82E682FCE010E94B210BE018F2DC3
:104440000E94F00E0E940F0FD82FC92FA82EF8013E
:10445000C580B680B2943FE0B3228091DB028770C2
:1044600009F1EC2CCC20F9F0892F807F803469F0A1
:1044700080E28D0F8830B0F0892F807E803229F461
:10448000F1E0FD1778F4BB2069F08091380382FFDA
:1044900009C082E00E94FF108091DB028770EE2449
:1044A000E3948111E12CDC2ED2942FE0D2222BE078
:1044B0002D1508F46DC0ED2DF0E0EE54FD4C0C947C
:1044C000E73180E0AACFCE010E947F10F82EB6CF50
:1044D0003C2F3F70F32EC07F19F0F29490EFF92239
:1044E000CC20B9F0FF2069F080E28D0F883010F009
:1044F000A11009C08091E602F82AF092E6020E941B
:1045000021128D2F43C08091DD02F82AF092DD0246
:10451000F6CF8D2F0E94541FFF20D1F1D05ED830EE
:1045200010F0A11004C08F2D0E942D1006C0F09431
:104530008091DD02F822F092DD020E94211228C053
:104540008C2F8F70F82EC07FC03219F0F29480EF5C
:10455000F822AA2059F091E0A91609F479C0CC20DC
:1045600009F485C0BB2009F447C0CBCF8091380344
:1045700082FD3EC0CC20B1F1FF2039F08091E602EF
:10458000F82AF092E6020E94211280E00E94911F18
:104590002D2D2850330B2430310510F40E940607CE
:1045A000EE20A9F08091DB0280FD11C0F801158298
:1045B0008695869586950E941611C8010E947920DD
:1045C0008091DB028695869586950E94ED1020E00D
:1045D000F8014081518162817381848195810E94BB
:1045E0004E11BACD80E00E94541FFF2089F29BCF6C
:1045F000CC20A1F0B11004C08F2D0E946312C8CF4F
:10460000E1E0BE12C5CF8091DC029F2D9823F91600
:1046100009F4BECFF82AF092DC02BACFB110B8CFBD
:104620008F2D0E945C129091DC028F2D892329F03E
:104630008F2D809589238093DC028091B3029F2D7A
:10464000982309F4A5CFF094F822F092B302A0CFFA
:10465000CC2029F0F5E0FB1508F49ACFCDCF24E06B
:104660002B1508F495CF8F2D0E945C1291CFBB20A3
:10467000D1F339E3A31209C08FEF97EEE3E0815045
:104680009040E040E1F700C000008D2F0E94541FD1
:104690007FCF8C2F86958695837069F0813009F0E5
:1046A00077CF8D2F9C2F9370C11002C080E090E0D7
:1046B0000E94BC066DCF8D2F9C2F9370C11002C03D
:1046C00080E090E00E94E10663CF6C2D8D2F0E9468
:1046D000701E5ECF8C2F837009F03FC0C11058CF81
:1046E0004D2F429546954770440F440F2D2F2F7044
:1046F00030E0042E02C0220F331F0A94E2F790E04C
:1047000080E0D4FF09C08FE090E002C0880F991FBD
:104710004A95E2F780959095C695C695C370C230CC
:1047200099F078F44091330350913403C13039F05B
:10473000822B932B842395230E94261129CF242B8F
:10474000352B822B932BF8CF822B932B2091330385
:104750003091340382279327EFCF8695CC2011F038
:104760008C2F8170882309F413CF4D2F42954695E5
:104770004770440F440F2D2F2F7030E0042E02C0DD
:10478000220F331F0A94E2F790E080E0D4FF09C0C3
:104790008FE090E002C0880F991F4A95E2F780955C
:1047A0009095C695C695C370C23099F078F4409143
:1047B000350350913603C13039F0822B932B84237B
:1047C00095230E94E810E4CE242B352B822B932BCB
:1047D000F8CF822B932B209135033091360382271B
:1047E0009327EFCFCF70CC2029F08C2F0E94161189
:1047F0008D2F03CF8D2F0E945C128C2F0E94ED1005
:10480000C7CE8D2FF2EFAF1699F1FA1570F020EFA9
:10481000A216D1F031EFA31691F0CC2009F45BC0C1
:10482000B1106FCE8C2F8F7127C093EFA91639F17D
:10483000E4EFAE12F2CF8091380382FD2EC08C2FB0
:104840008F71CC20D9F218C0CC2069F0F4E0FB15B0
:1048500008F49ECECF7181E090E002C0880F991FCE
:10486000CA95E2F7B8CF25E02B1508F491CEF2CF28
:104870008C2F8F71C110C2CF0E94161189CE90E08B
:1048800080E0CC2009F49DCFCF7181E090E002C0A0
:10489000880F991FCA95E2F794CFCC2089F0CF7189
:1048A0008C2F0E9416118091380382FF07C038E0D8
:1048B000C39FC001112483608093DB028C2FDCCF67
:1048C00081E00E94FF1081E08B1508F061CE82E04C
:1048D0000E94FF105DCEBB2059F0893309F0D5CE80
:1048E0009FEFE7EEF3E09150E040F040E1F7CBCEF0
:1048F0008C2F8F7183CFC631FCE7DF0749F580919C
:10490000E6028A7A91E009F490E09093B20269E2BB
:10491000811165E38AEA92E00E94A2060E942112B8
:104920000CCCC6312CE7D20799F58091B2028111E7
:104930000ACD89E2ECEAF2E022EB32E091918913B0
:1049400003C0DF0111971C922E173F07B9F7E6CF7E
:10495000C3303CE7D30709F451CD50F4C1159CE7AF
:10496000D90709F43ECDC130DC4709F44DCD57CD10
:10497000CB35FCE7DF0709F4A4CDCC352CE7D20713
:1049800009F444CDCA35DC4709F049CD81E045CD75
:104990008091E6028272FE01E052F847E531F105AE
:1049A00008F03DCDE254FD4C0C94E731CF93DF93FA
:1049B0008091DA02807F09F04DC08091D90288236E
:1049C00009F448C0E0917A0550914105C091D502A3
:1049D000D091D4026091D6027091D70247E05E1761
:1049E000C9F18E2F90E0E49FF0011124EE5BFA4FA5
:1049F0002481222391F1489FF001499FF00D112459
:104A0000DF01AE5BBA4F11962C9111972C1325C084
:104A10002C912D1322C015962C91159721111DC094
:104A200012962D913C91261B370B283C3105A8F49A
:104A30008091DA028F7080618093DA02E85BFA4F2E
:104A400080818F708061808384ED92E00E94792064
:104A50000E943410DF91CF910895FC013196E770E8
:104A6000BECFA4E1B0E0E7E3F5E20C9496318C010F
:104A700086E0F801DE011F9601900D928A95E1F71C
:104A8000F8018481E58094EDA92E92E0B92E9091F1
:104A9000D802911128C0882319F1EE20F1F0C80145
:104AA0000E942B11F82E8823C1F087E0F801D50170
:104AB00001900D928A95E1F78091D802813031F40E
:104AC0008091D4029091D5020E9472100E94D62447
:104AD0008F2D6496ECE00C94B231C8010E947920CD
:104AE000FF24F394F5CFD080C18082809380F09032
:104AF000D9022091D6023091D702A401421B530B58
:104B0000FF2009F4D9C0483C510508F092C0882321
:104B1000F9F29091D5028091DA02282F207F09F0D6
:104B200056C0C91214C09091D402D91210C0E1101D
:104B300048C08F7080618093DA0284ED92E00E9419
:104B400079208091DA02F8018683F12CC1CFE1103F
:104B500038C06C2D8D2D0E94F8046C2D8D2D0E9477
:104B6000F804E82E8111F1CFDF86C88A8F859889F5
:104B70000E947210292F22952F70243058F49F70B4
:104B8000223088F0992399F0F8019681907F79F48A
:104B9000FE2C9ECF2A5F2F70223068F0C8010E9441
:104BA0007920EF2CF5CF992311F0882389F3805ECB
:104BB000883070F3F3CF803F58F3815F833070F714
:104BC000E7CF8091DA0281608093DA02BECFC9120A
:104BD00007C09091D402D91203C0EE2009F48DC011
:104BE000C8010E942B11882309F477CFEE2009F425
:104BF00074CF8091DA02803288F02091D402309113
:104C0000D502398728879B868A869091D8029C870F
:104C10001D868E87CE0108960E94792087E0F801D4
:104C2000A4EDB2E001900D928A95E1F70E94D6249E
:104C300057CF9091DA02292F207F51F484ED92E032
:104C40000E94792087E0F50111928A95E9F77DCFDE
:104C5000882309F43DCF8091D5028C1110C080913A
:104C6000D402D8120CC0E1100AC09683C8010E9479
:104C7000792087E0F50111928A95E9F729CFC801DB
:104C80000E942B11882309F428CFEE2009F425CFA8
:104C90008091DA02803210F22091D4023091D50254
:104CA0003A8329839C828B829091D8029D831E82B5
:104CB0008F83CE010196B0CF483C5105D0F68823B2
:104CC00009F40ECFFE2CEE2009F407CF8091D50217
:104CD0008C1120C08091D402D8121CC08091DA02BD
:104CE00080FD0FC0982F907F61F08683903F31F058
:104CF000982F907F905F8F70892B8683C8010E94C8
:104D0000792087E0F801A4EDB2E001900D928A9538
:104D1000E1F7DECEC8010E942B1181117FCF809177
:104D2000DA0281608093DA02C8010E947920D0CE35
:104D3000ABE1B0E0EEE9F6E20C949E314E8B5F8B76
:104D4000688F798F8A8F9B8F192F91111092DD02B6
:104D50001D8A86E0FE017696DE011F9601900D9277
:104D60008A95E1F70A8D002341F021E04F855889AB
:104D700069897A89C8010E944E110B8B1C8B87E0D0
:104D8000FE013F96DE01189601900D928A95E1F79B
:104D9000CE0108960E94312581112AC087E0FE01CC
:104DA0003896DE01119601900D928A95E1F78C8577
:104DB0008823F1F02091410530E0C9010196877008
:104DC000992740917A0548171906E9F097E0929FD4
:104DD000D001939FB00D1124AE5BBA4FFE01319606
:104DE00001900D929A95E1F7809341050E9434104D
:104DF00017E080917A0590914105891312C06B9656
:104E0000E4E00C94BA310E943E1B109241051092CE
:104E10007A0587E0E4EDF2E0DF011D928A95E9F77B
:104E2000E7CF819FC00111248E5B9A4F0E943125EC
:104E3000882329F380917A0590E00196877099275D
:104E400080937A05D6CF2F923F925F926F927F9296
:104E50008F929F92AF92BF92CF92DF92EF92FF928A
:104E60000F931F93CF93DF9380910905882341F11E
:104E700080910705909108050E94FC1AC29790F551
:104E800080918C0590918D05892B09F044C080910B
:104E900006058823A9F00E9496060091020510914C
:104EA00003052091040530910505601B710B820BF1
:104EB000930B6F3F7F4F8F4F9F4710F40E94371324
:104EC000DF91CF911F910F91FF90EF90DF90CF90E6
:104ED000BF90AF909F908F907F906F905F903F902A
:104EE0002F9008950E940B1B90930805809307054F
:104EF0008EE895E09093950780939407E2ECF2E0BA
:104F00008491EF01882309F4BBCF0E94731121968D
:104F1000FE018491F7CF80910905882309F4B7CF6A
:104F2000809101058111B3CF0E94521320918C050D
:104F300030918D052115310509F4A9CF80E041E0BC
:104F400050E0082F10E01A01082E02C0220C331C7A
:104F50000A94E2F7B10162237323672B11F48F5F88
:104F6000F0CF9091000590FF95C0880F880F880FB3
:104F70008093490110924C01895F80934A0183E03C
:104F800080934D0124E630E047E050E067E471E0B3
:104F900088E70E94EC2E892B09F079CFA80125E043
:104FA000440F551F2A95E1F78091000580FF84C0CA
:104FB000E0EEF4E080E2DF011D928A95E9F7AAEBCA
:104FC000B1E006EB11E08EEBC82E81E0D82E97E021
:104FD000592E772473948D91E80129918E01240F25
:104FE000352F311D22573A4FE82FF0E0E052FB4FAA
:104FF00090E080E0652C681A872C082E01C0880C90
:105000000A94EAF77901A12CE701B9907E01B82052
:10501000662D6A196770962E062E000C770BDB2D15
:1050200001C0DD0F9A94EAF7719561957109677077
:10503000772701C0B6946A95EAF7BD2A6081962E5B
:105040009B289082A39468E0A612DECF0196319649
:105050008830910579F6CA16DB0609F0BCCF04E664
:1050600010E020E230E040EE54E060E488E70E9487
:10507000762F892B09F00BCFE101C095D095809157
:105080008C0590918D05C823D923D0938D05C093AD
:105090008C05FDCE8295880F80768093490198011A
:1050A000369527953695279520934C01815E809300
:1050B0004A0120934D0166CF42575A4F04E610E053
:1050C00020E230E0D2CFAFE0B0E0E9E6F8E20C94C5
:1050D00095318E010F5F1F4F8AE0F80111928A957A
:1050E000E9F783E9C82E81E0D82EF12CE12CAA241F
:1050F000A394B12C2EE9822E21E0922EF60181910B
:105100006F018F3F09F442C0F894E82FE295EF70E9
:10511000F0E021A18F70A50102C0440F551F8A95B0
:10512000E2F7CA01922F982B91A392A1809589232F
:1051300082A3789400C0E8E9F1E0712C31E021917C
:105140002F3F09F49EC0A22FA295AF70B0E09096B9
:105150008C9190E02F7002C0959587952A95E2F783
:1051600080FD8FC0832F782A330F8E169F0639F764
:10517000F601319780818F3F11F00E94CE0D50EAE9
:105180005A95F1F7F801EE0DFF1D70828FEFE81AC6
:10519000F80AE5E0EE16F10409F0B0CF4AE050E07D
:1051A000B80187E293E00E94F631009741F02AE0CF
:1051B000F801A7E2B3E001900D922A95E1F7009182
:1051C000320310E0075C1C4F892B09F45CC081E0BE
:1051D0008093EB020E940B1B9093EA028093E902FA
:1051E000D12CC0901D05CC2009F4A4C07E01FBE0A9
:1051F000EF0EF11C85E0F70111928A95E9F7809195
:1052000022038A3008F063C043ED59E1B701C801B9
:105210000E94F712882309F47CC049E859E1B701DC
:10522000C8010E94F712882309F473C04FED58E1BA
:10523000B701C8010E94F712882309F46AC04AE83E
:1052400058E1B701C8010E94F712882309F461C030
:10525000109222038091310390E045E050E0B701C5
:10526000875C9C4F0E94F63121E02093F202892B4B
:1052700009F042C0C12C8C2D8D292F96EDE00C94A5
:10528000B13180E070CFD090EB02DD2009F4A8CFDF
:105290008091E9029091EA020E94FC1A059708F4B5
:1052A0009FCF45E050E067E273E0C8010E94F6310D
:1052B000892B59F085E0E7E2F3E0D80101900D92E7
:1052C0008A95E1F71092EB028CCFD12CFBCF809125
:1052D000EC029091ED020E94FC1A843F914008F08C
:1052E00093CF8091F202882329F285E0F701119291
:1052F0008A95E9F71092F202A0913103B0E0A75C21
:10530000BC4F85E0FE013B9601900D928A95E1F736
:10531000B2CF809122038F3F31F08F5F80932203C1
:105320008A3008F497CF0E940B1B9093ED02809374
:10533000EC02D7CF85E0F801A4EFB2E001900D9226
:105340008A95E1F765E070E084EF92E00E946707DC
:105350008093F30286E0EAE0F5E0AAEFB2E0019084
:105360000D928A95E1F766E070E08AEF92E00E9484
:1053700067078093F9028090000390900103A0904A
:105380000203B09003038091EE029091EF02A0918E
:10539000F002B091F10288169906AA06BB06B1F098
:1053A0008092EE029092EF02A092F002B092F1028F
:1053B0000E949606861A970AA80AB90A80922303C1
:1053C00090922403A0922503B092260388E0E4E0A3
:1053D000F3E0A3E8B5E098CFA6E0B0E0E2EFF9E2B1
:1053E0000C949E310E940B1B8C018091E7029091DE
:1053F000E8028017910781F019821A820E940B1B24
:10540000682F49815A81792F80E090E00E94982688
:105410001093E8020093E7022696E4E00C94BA3178
:105420001F921FB61F9211248F939F93AF93BF9328
:1054300080912505811113C0809126059091270543
:10544000A0912805B09129054196A11DB11D809319
:10545000260590932705A0932805B0932905BF91B1
:10546000AF919F918F911F901FBE1F901895CDB740
:10547000DEB72E970FB6F894DEBF0FBECDBF85B74F
:10548000806885BF85B7806885BF84B7877F84BF04
:105490000FB6F894A89580916000886180936000B1
:1054A000109260000FBE80E890E00FB6F8948093F1
:1054B0006100909361000FBE87EC9DE09093A9027C
:1054C0008093A8020E9427050E94C8058091E200EF
:1054D00084608093E2007894809137058823A1F05E
:1054E0001091E9001F709091EC00892F817090FD60
:1054F00080E8182B1092E9008091E80083FD0E945B
:10550000651B1F701093E90082E084BD93E095BD98
:105510009AEF97BD80936E0010922303109224039C
:1055200010922503109226038091D8008061809309
:10553000D8002AE12A95F1F700C08091D900182FF0
:10554000117080FD04C00E9427051092370510934A
:105550001D0510931E051093380111110E941A3079
:10556000EAE0F5E086E0DF011D928A95E9F7809197
:10557000380191E0892780935003809138019093FE
:1055800053038091380180913801811106C084EF66
:1055900080934E0185EF80934F0160E080E00E9490
:1055A000990761E080E00E949907EFE8F1E0319708
:1055B000F1F700C0000010E080915303181708F4C1
:1055C000CAC0809138018091380195E0811190E046
:1055D0009093320385E0891B8093310303E911E046
:1055E000D8018D918D018F3F11F00E94CE0DB1E059
:1055F00008391B07A9F708E911E0F80181918F012B
:105600008F3F11F00E94CE0DF1E00E391F07A9F770
:105610008AE0E9E3F3E0DF01282F1D922A95E9F7FC
:10562000E7E2F3E0DF011D928A95E9F790E080E080
:105630000E942432863E9E4F09F466C066EE7EEFDD
:1056400090E080E00E94583260E082E090E00E94AA
:105650003A3281E090E0909334038093330361E029
:1056600083E090E00E943A3260E074E184E090E0F0
:105670000E94583260E086E090E00E943A3260E09A
:1056800087E090E00E943A3240E050E0BA0188E0C2
:1056900090E00E944C3260E084E290E00E943A3256
:1056A00060E087E190E00E943A3260E08CE090E0B8
:1056B0000E943A3260E08DE090E00E943A32198216
:1056C0001A821B821C821D821E821F82188648E05D
:1056D00050E068E170E0CE0101960E942A3240E07D
:1056E00050E0BA0180E290E00E944C3240E050E08D
:1056F000BA018FE090E00E944C3240E050E0BA01E5
:1057000083E190E00E944C3282E090E00E941C32E3
:105710008093430384E090E00E9424329093380306
:10572000809337030E946328EFEFF6E721E0E15012
:10573000F0402040E1F700C000000E946328809103
:10574000390380FF1AC06FEF7FEF90E080E00E9486
:1057500058320E94850660E0812F0E947D07082F45
:1057600061E0812F0E947D07E12FF0E0EF5AFC4FAE
:10577000880F802B80831F5F1FCF83E090E00E9403
:105780001C3290E00E9426110E940D0881E0809357
:10579000820548E050E068E170E083E895E00E940F
:1057A0000C3210928205809183058C7FF9F485E399
:1057B000809383058091550190915601A0915701E6
:1057C0008093840590938505A09386058FE7809349
:1057D00087058FEF8093880548E050E068E170E02E
:1057E00083E895E00E942A321092820580911D057F
:1057F000882309F4B8C082E08093000580E8809394
:105800008B050E94B82E6BE070E083EB91E00E9464
:105810002A138823E9F18091000565E070E081FD9D
:10582000A4C08EEA91E00E942A13882389F16DE0DA
:1058300070E08CE991E00E942A13882349F10E94CC
:105840009606605A75418F4F9F4F60930205709383
:1058500003058093040590930505EEE8F5E080E0EC
:1058600092E0DF019C011D9221503040E1F7F0935E
:105870009507E09394078FEF9FEF90938D058093AA
:105880008C0581E08093090580930605109201053F
:1058900080911D05811102C00E941D3089E391E0B5
:1058A000909322058093210598E1C92ED12C23E401
:1058B000A22E23E0B22E34E0832E912C8091370566
:1058C00000E112E1853009F48BC00E94632804E4F2
:1058D00013E089E3E82E83E0F82E2EE433E0D701CD
:1058E000F80191918D912E173F0709F483C0981705
:1058F000C1F320901D05712CD7016D907D01F80139
:1059000031908F01361431F1512C442443943624C4
:10591000832D8421B9F02220A9F059867A860E942D
:105920000B1B9C878B87F1E0FD8791E0862D8421FE
:1059300009F490E09E8749855A856B857C858D8525
:105940000E9498265394440C26E05212E1CFF801AD
:105950003197608273943AE07312CECF0E94E50DC6
:10596000772473944CC080E047CF89EA91E05BCF05
:1059700080913705843031F10E947A130E943713E9
:105980001092250530E40FB6F894A895C0926000F7
:105990000FBE3093600083B7817F846083BF83B77D
:1059A000816083BF7894889583B78E7F83BF0FB65D
:1059B000F894A895809160008861809360001092AF
:1059C00060000FBE80913605882351F00E94632845
:1059D000E9E3F3E08191811155C1AE16BF06D1F71D
:1059E00080913705853009F4C3CF0E943E1B0E9489
:1059F00006076BCF98137DCF0E94EC29712C0E9473
:105A00007A13E0901D05EE2019F00E944D20E82E3B
:105A1000F12C80915303F81688F080911D0588239E
:105A200019F00E944D20E82AEE2009F443C00E949C
:105A3000E50D0E9423270E94521340C061E08F2D84
:105A40000E947D07182F60E08F2D0E947D07E12FB7
:105A5000EE0F8E2B0F2D10E0D801AF5ABC4FEC91FA
:105A60009E2F9370891721F1EE0FEE0FE82BEC9328
:105A7000809150038F0DEF70F0E0E256FE4F025B15
:105A80001C4F6080D8019C91690E6C92B3E060E07D
:105A9000B61524F0EDEF6E161CF461E00E94BC0711
:105AA000862D660C990BB4010E94D331D8018C93DA
:105AB000F394AFCF0E9423277110BDCF86E0E7E1BA
:105AC000F5E0DE01119601900D928A95E1F7709054
:105AD00018051091190500911A05E0901B05F0902A
