:100000000C94C0040C94DD040C94DD040C94293190
:100010000C94DD040C94DD040C94DD040C94DD04DC
:100020000C94DD040C94DD040C94BE1A0C94D51EC3
:100030000C94C22A0C94DD040C94DD040C94DD04B1
:100040000C94DD040C94DD040C94DD040C94DD04AC
:100050000C94DD040C94971B0C94DD040C94DD04CB
:100060000C94DD040C94DD040C94DD040C94DD048C
:100070000C94DD040C94DD040C94DD040C94DD047C
:100080000C94DD040C94DD040C94DD040C94DD046C
:100090000C94DD040C94DD040C94DD040C94DD045C
:1000A0000C94DD040C94DD040C94DD0435001E007A
:1000B0001F002000210022002B0014001A0008005D
:1000C00015001700E00004001600070009410A00AF
:1000D000E1001D001B0006001900050000000000E3
:1000E000E2002A00E300A8002D00270026002500DA
:1000F000240023002900130012000C0018001C002B
:10010000340033000F000E000D000B00E500380036
:10011000370036001000110030002F002E0028009C
:100120002C00AE00290000000000000000000000CC
:10013000000000005200000000000000000050001D
:1001400051004F000000000000000000000000000F
:10015000000000000000000000000000000000009F
:10016000000000000000000000000000310000005E
:10017000D200CD00D100000000000000D000CE0071
:10018000CF00000000000000DF00DE00DD00000006
:1001900000000000000000000000000000DA028102
:1001A000FFD9F1DB20A4A62EAF00A0C0D30000A190
:1001B000C8D30000AED580A81F408D1420000001D8
:1001C0000101010101010101020202020202020217
:1001D00002030303030303030304040404040404E9
:1001E00005050505050606060606070707070708AD
:1001F000080808090909090A0A0A0B0B0B0C0C0C60
:100200000D0D0D0E0E0E0F0F0F10101111111212F9
:1002100013131414151516161717181819191A1A76
:100220001B1B1C1D1D1E1E1F2020212222232424D7
:10023000252626272829292A2B2C2D2D2E2F303113
:100240003232333435363738393A3B3C3D3E3F4025
:100250004142434445464748494A4C4D4E4F505110
:100260005354555658595A5B5D5E5F6162646566CA
:1002700068696B6C6D6F7072737577787A7B7D7E51
:100280008082838587888A8C8E8F91939596989AA1
:100290009C9EA0A2A3A5A7A9ABADAFB1B3B5B7BAB9
:1002A000BCBEC0C2C4C6C9CBCDCFD1D4D6D8DBDD8D
:1002B000DFE2E4E7E9EBEEF0F3F5F8FAFDFF00AF7B
:1002C00000AE808182838485868788898A8B8C8D25
:1002D0008E8F9091929394A0A1A2A3A4A5A6A7A863
:1002E000A9AAABACADAEAFB0B1B2B3B4C0C1C2C3DA
:1002F000C4C5C6C7C8C9CACBCCCDCECFD0D1D2D346
:10030000D40005010902A10185020901A100050926
:1003100019012908150025019508750181020501BB
:10032000093009311581257F950275088106093844
:100330001581257F950175088106050C0A3802157F
:1003400081257F950175088106C0C005010980A13E
:1003500001850319012AB700150126B7009501751B
:10036000108100C0050C0901A101850419012AA012
:1003700002150126A002950175108100C005010932
:1003800006A101050719E029E71500250195087563
:100390000181029501750881010507190029FF15E2
:1003A0000026FF009506750881000508190129053A
:1003B00015002501950575019102950175039101BF
:1003C000C009023B00020100A0FA09040000010379
:1003D00001010009211101000122440007058103E8
:1003E00008000109040100010300000009211101B6
:1003F0000001227B00070582032000011201000298
:10040000000000084C4243530100010200011603A2
:1004100053006F0066006C00650020004300680018
:100420006F00630000001403420072006900610065
:100430006E0020004C006F007700000004030904E8
:1004400007087F0807003E5B4F5B3E003E6B4F6B2B
:100450003E001C3E7C3E1C00183C7E3C18001C5795
:100460007D571C001C5E7F5E1C0000183C180000BD
:10047000FFE7C3E7FF00001824180000FFE7DBE7F1
:10048000FF0030483A060E00262979292600407FD1
:1004900005050700407F05253F005A3CE73C5A0010
:1004A0007F3E1C1C0800081C1C3E7F0014227F227B
:1004B00014005F5F005F5F0006097F017F00006638
:1004C00089956A0060606060600094A2FFA2940059
:1004D00008047E04080010207E20100008082A1C52
:1004E0000800081C2A0808001E10101010000C1E1E
:1004F0000C1E0C0030383E383000060E3E0E060052
:1005000000000000000000005F000000000700077E
:100510000000147F147F1400242A7F2A1200231362
:1005200008646200364956205000000807030000A6
:10053000001C224100000041221C00002A1C7F1CDC
:100540002A0008083E0808000080703000000808F3
:100550000808080000006060000020100804020085
:100560003E5149453E0000427F40000072494949E2
:1005700046002141494D33001814127F10002745D1
:10058000454539003C4A49493100412111090700DC
:10059000364949493600464949291E0000001400E1
:1005A0000000004034000000000814224100141430
:1005B0001414140000412214080002015909060015
:1005C0003E415D594E007C1211127C007F49494921
:1005D00036003E41414122007F4141413E007F497A
:1005E000494941007F09090901003E414151730019
:1005F0007F0808087F0000417F4100002040413F04
:1006000001007F08142241007F40404040007F02EB
:100610001C027F007F0408107F003E4141413E00E4
:100620007F09090906003E4151215E007F09192911
:10063000460026494949320003017F0103003F403B
:1006400040403F001F2040201F003F4038403F00F7
:100650006314081463000304780403006159494DCE
:100660004300007F41414100020408102000004186
:1006700041417F000402010204004040404040002C
:100680000003070800002054547840007F284444A9
:100690003800384444442800384444287F00385403
:1006A0005454180000087E09020018A4A49C780085
:1006B0007F080404780000447D4000002040403D55
:1006C00000007F102844000000417F4000007C04AF
:1006D000780478007C0804047800384444443800E6
:1006E000FC182424180018242418FC007C08040496
:1006F000080048545454240004043F4424003C405F
:1007000040207C001C2040201C003C4030403C002D
:100710004428102844004C9090907C004464544C31
:10072000440000083641000000007700000000414E
:10073000360800000201020402003C2623263C0089
:10074000000000000000404040F0F8F8FF38FFF8DB
:10075000F83FF8F8FF38FFF8F8F04040400000009C
:1007600000000080C0C0C0800000C0C08000000049
:1007700080C0C000C0C0000080C0C00000000000F9
:10078000C0C0C0C0C000C0C0000000000000000029
:100790000000000000000000000000000000000059
:1007A0000000000000000000000000000000000049
:1007B000000000000000000000000000000000C079
:1007C000F0F8FC3E1E06010000007F4141417F0021
:1007D0007F4141417F000080C0E07E5B4F5BFEC0F7
:1007E0000000C000DCD7DEDEDED7DC00C000000089
:1007F00000000000000000000000000000000000F9
:10080000000000000000494949FFFFFFFFE0DFBF93
:10081000BF00BFBFDFE0FFFFFFFF49494900000005
:1008200000001F3F6060E0BF1F007F7F071E381E73
:10083000077F7F007F7F0E1F3B716000000000007C
:100840007F7F0C0C0C007E7E007F7E0303007F7E8A
:1008500003037E7E03037F7E000F3E703C063C70E8
:100860003E0F00327B49493F7E007F7E0303001E1E
:100870003F69696F260000000000000000000003CF
:100880000F1F3F3C7870600000007F4141417F00B6
:100890007F4141417F00307B7F7830202030787F5E
:1008A0003B0003000F7F0F0F0F7F0F0003000000BE
:1008B0000000000000000000000000000000000038
:1008C000000000000000010101070F0F7F0F7F0FE4
:1008D0000F7E0F0F7F0F7F0F0F0701010100000038
:1008E0000000000000000001010000000000000006
:1008F00000000000000000000000000000000000F8
:1009000000000000000000000000000000000000E7
:1009100000000000000000000000000000000000D7
:1009200000000000000000000000000000000000C7
:1009300000000000000000000000000000000000B7
:1009400000000000000000000000000000000000A7
:100950000000000000000000000000000000000097
:100960000000000000000000000000000000000087
:100970000000000000000000000000000000000077
:1009800011241FBECFEFDAE0DEBFCDBF12E0A0E042
:10099000B1E0E8E3F7E602C005900D92A83AB1078E
:1009A000D9F727E0A8EAB2E001C01D92AC39B2073E
:1009B000E1F70E94E92A0C9427330C9400009091EF
:1009C0008905937061F081110BC094609093890543
:1009D0001092540180918805816080938805089564
:1009E0008F3110F09867F2CF880F880F982BEECFD9
:1009F000482F209180059091470557E0291302C0A8
:100A000080E0089530E0529FF001539FF00D1124D3
:100A1000E85BFA4F8181681306C08081481303C0E8
:100A200085818111EECF2F5F3F4F2770E7CF9091E7
:100A30008905937059F080938A0560938B054093E4
:100A40008C05809188058160809388050895E8ED84
:100A5000F0E080818E7F80831092E2001092DA00B5
:100A60001092E100A0EEB0E08C9181608C938081C7
:100A70008F77808319BCA7EDB0E08C918E7F8C932B
:100A800080818F7E80831092300508952091E4004C
:100A90003091E50095E6A9012091EC00822F81704C
:100AA00020FF06C08091E80080FF06C080E0089526
:100AB0002091E80022FD1AC080913D05882389F02D
:100AC000853089F08091EB0085FD0FC02091E40016
:100AD0003091E50042175307F9F29150E1F684E0B6
:100AE000089582E0089583E0089581E0089580915B
:100AF0003F0587FF13C08091E80082FF06C0809108
:100B0000E8008B778093E80004C080913D05811157
:100B1000F2CF089580913D058823D9F38091E800B4
:100B200080FFF8CF8091E8008E77ECCF982F9093DC
:100B3000E900242F762F50E0891731F07091EC00F6
:100B40002091ED005091F00021FD07C09F5F97308C
:100B500071F78093E90081E008953091EB003E7FCA
:100B60003093EB003091ED003D7F3093ED003091FC
:100B7000EB0031603093EB007093EC002093ED00BC
:100B80005093F0002091EE0027FDE0CF80E0089523
:100B9000B0E0A0E0EEECF5E00C946332C8EDD0E0FC
:100BA00088818F7E8883E7EDF0E08081816080839B
:100BB00084E082BF81E08093300588818E7F8883C6
:100BC00002EE10E0F80110821092DA0081EEC82ED9
:100BD000D12CF601108288818F7788838881806884
:100BE000888388818F7D888319BC10923D0510927F
:100BF0003E0510923C0510923B0590EEE92EF12C3B
:100C0000F70180818B7F808388818160888342E0C7
:100C100060E080E00E949605F60180818E7F8083EF
:100C2000F801808181608083808188608083F70102
:100C300080818E7F8083888180618883CDB7DEB795
:100C4000E8E00C947F32FC018091450590914605C7
:100C500086179707A0F06115710529F49091E800B7
:100C60009E779093E80090E06115710551F4911121
:100C700008C08091E80082FF34C080E00895BC0184
:100C8000F2CF80913D058823C1F18530C1F180917B
:100C9000E80083FD30C08091E80082FDEACF8091BA
:100CA000E80080FFE1CF8091F3002091F200382F1F
:100CB0006115710519F02830310558F091E02830A0
:100CC000310509F090E02091E8002E772093E800AC
:100CD000CBCF81918093F100615071092F5F3F4F1D
:100CE000E7CF80913D05882341F0853041F0809128
:100CF000E80083FFBECF81E0089582E0089583E09D
:100D00000895089580913205089587E797E79093B5
:100D100001088093000888E19AE00FB6F894A8953E
:100D2000809360000FBE90936000FFCF2FB7F894C0
:100D300060912C0570912D0580912E0590912F05C5
:100D40002FBF08959C01FC0132969FEF80E04191F6
:100D5000461751F09F3F19F4411101C0982F8F5F42
:100D60008630A9F79F3F09F40895290F311D97FD9B
:100D70003A95F90162830895A3E0B0E0E2ECF6E071
:100D80000C9469322091290530912A0528173907DA
:100D9000A1F090932A0580932905E0912705F09111
:100DA0002805309751F024E029839B838A830084AF
:100DB000F185E02DCE01019609952396E2E00C9491
:100DC0008532A3E0B0E0E7EEF6E00C9469322091C2
:100DD00025053091260528173907A1F0909326059F
:100DE00080932505E0912705F0912805309751F073
:100DF00023E029839B838A830084F185E02DCE0143
:100E0000019609952396E2E00C94853280912305A2
:100E1000882359F0E0912705F0912805309729F0B3
:100E20000190F081E02D0995089580E0089580916A
:100E3000180580FD16C081FD16C082FD16C0809188
:100E400017058823A1F0883280F428E0829FC00132
:100E5000112468E270E00E949C32862F672B39F0E3
:100E6000089582E0089584E0089588E0089581E07F
:100E700008958091180580FD14C081FD14C082FD85
:100E800016C080911605882381F08E3180F420E50C
:100E9000829FC00111246EE170E00E949C32862F77
:100EA000089584E1089588E2089588E0089580E532
:100EB0000895282F35EB2303C001112497FF04C0A8
:100EC00080589109892F089580589F4FFBCFFC01CE
:100ED000680F791F8FEF91E32191822728E030E09E
:100EE00087FF09C0880F892721503109C9F7E61704
:100EF000F70791F70895880FF7CF90E06623A1F0E8
:100F0000815B9E4FFC0120812F3F89F0E22FE2950B
:100F1000EF70F0E080A190E02F7002C0959587956A
:100F20002A95E2F781700895825B9E4FEBCF80E0B7
:100F3000089590E06623E9F0815B9E4FFC0180817B
:100F40008F3FB1F0E82FE295EF70F0E041A18F7094
:100F500021E030E0B90102C0660F771F8A95E2F701
:100F6000CB01962F9095942391A392A1892B82A3D4
:100F70000895825B9E4FE2CF90911005E92FF0E03B
:100F8000409111059F012F5F3F4F23703327421778
:100F90001306A9F0EE5EFA4F282F2F778081807814
:100FA000822B60FB87F980839F5F9370909310057D
:100FB00080910E058F5F80930E0581E0089580E09B
:100FC0000895FA01811101C0FB010995089530913E
:100FD0002405311123C08D3191051CF14D97FC0181
:100FE000EE0FFF1FDF01A80FB91FAA5CBB4F1196C0
:100FF0003C911197361307C03C91341304C01296EC
:101000003C91321771F031E030933504E80FF91F4D
:10101000EA5CFB4F61834083228303C08D319105DD
:10102000F4F20895539A109235040895E9E8F5E032
:10103000248130E1231B08F420E02483809188057B
:101040008160809388050895E9E8F5E0248130E126
:10105000230F08F42FEF248380918805816080930B
:1010600088050895E9E8F5E0438120E1421B08F492
:1010700040E08181628190E00E9417050895E9E8CF
:10108000F5E0438120E1420F08F44FEF8181628156
:1010900090E00E9417050895E9E8F5E0628120E1FB
:1010A000621B08F460E08181438190E00E94170593
:1010B0000895E9E8F5E0628120E1620F08F46FEF3E
:1010C0008181438190E00E9417050895E9E8F5E0E9
:1010D0008181438162818850990B0E941705089590
:1010E000E9E8F5E0818190E04381628108960E9401
:1010F000170508958091890586958695815009F494
:101100008EE10E94DF040895809189058695869579
:101110008F5F8F3108F081E00E94DF0408959CE02A
:10112000899F802D1124980F9B3308F09AE320911A
:101130002405222321F09E3128F09DE108958D3170
:1011400008F48DE10895E42FF0E0EE0FFF1FE65064
:10115000FE4F9081921B97FD9195292F38E1239F97
:10116000212D1124620F08950F931F9310E0F801B1
:10117000EE0FFF1FE650FE4F9081905797FD91951F
:10118000000F111FF801E254FE4F05AD0052110B84
:101190002003F001219FF00D112408E310E0091B4A
:1011A000110997FD139540039001419F300D1124C3
:1011B000E20FF31F9F01220F331F2E0F3F1F37FF38
:1011C00002C021583F4F220F232F221F330B620FE3
:1011D0001F910F9108950F931F93522F10E0F80164
:1011E000EE0FFF1FE254FE4FA5ADA052BB0B9D01B9
:1011F0005203F001539FF00D1124000F111FD8016D
:10120000A650BE4F0C910057110B40039001419F17
:10121000300D11242E0F3F1F37FF02C0215C3F4FBE
:1012200096E0359527959A95E1F7620F1F910F91FA
:1012300008950F931F93522F10E0F801EE0FFF1F38
:10124000E254FE4FA5ADA052BB0B9D015203F0012D
:10125000539FF00D1124000F111FD801A650BE4F4F
:101260000C910057110B40039001419F300D112448
:101270002E0F3F1F37FF02C021583F4F220F232F51
:10128000221F330B620F1F910F910895EF920F935E
:10129000972F23E0029FB0011124759567956E0D7D
:1012A000792F0F91EF900895322F50E0FA01EE0F51
:1012B000FF1FE254FE4F95AD905297FD9195440F5C
:1012C000551FFA01E650FE4F2081231B330B290FD7
:1012D000311D97FD3A95620F0895E42FF0E0EE0F6F
:1012E000FF1FE254FE4F65AD621B0895E42FF0E04E
:1012F000EE0FFF1FE650FE4F6081621B0895622FC4
:101300000895E42FF0E0EE0FFF1FE650FE4F4081FE
:1013100034EE439F412D1124E82FF0E050E0445E6D
:101320005F4FDA01A21BB1099D01B7FF03C03195E0
:101330002195310993E0220F331F9A95E1F7AF0110
:10134000421B530B9A0157FD20E0582F259F212D5A
:101350001124822F0895E42FF0E0EE0FFF1FE650D6
:10136000FE4F408134EE439F412D1124E72FF0E0E2
:1013700050E0445E5F4FDA01A21BB1099D01B7FF47
:1013800003C031952195310993E0220F331F9A95BF
:10139000E1F7AF01421B530B9A0157FD20E0279F55
:1013A000212D1124722F08950E94E7070895FF92BE
:1013B0000F931F93CF93DF93182F062FF42ED0E0B7
:1013C000C0E02F2D402F612FCE010E94D40921961D
:1013D000CA33D105B1F7CDB7DEB7E5E00C94823260
:1013E000FC019B01009729F480E077FF2BC080E887
:1013F0000895AC0197FF04C044275527481B590B9B
:10140000B901640F751F37FD10C0241B350BC901CE
:10141000A5E0880F991FAA95E1F70E949C3280E20F
:10142000861BF7FF0FC081950895CB0165E0880FFB
:10143000991F6A95E1F7BA01621B730B0E949C32F7
:1014400080E6EECF0895EF920F93CF93DF93D72FDF
:10145000C82FC9010E19BA010E94F009602F681B3C
:101460007D2F8C2FDF91CF910F91EF9008950F93E7
:10147000CF93DF93D72FC82FC901BA010E94F0097B
:10148000682F600F7D2F8C2FDF91CF910F910895E2
:10149000EF920F931F93CF93DF93D62FC72F182F61
:1014A000C9010E19010FBA010E94F009081B202F73
:1014B000219F212D1124822F6D2F7C2FDF91CF9121
:1014C0001F910F91EF900895EF920F931F93CF9379
:1014D000DF93D62F172FC82FC9010E19070FBA0196
:1014E0000E94F009702F781B719F712D11246D2FB0
:1014F0008C2FDF91CF911F910F91EF9008950F9353
:101500001F93CF93DF93D62FC72F182FC901212FF9
:10151000201B022FBA010E94F009982F990F990FF2
:10152000891B800F282F219F212D1124822F6D2FA1
:101530007C2FDF91CF911F910F9108950F931F93EF
:10154000CF93DF93D62F172FC82FC901272F201B2A
:10155000022FBA010E94F009982F990F990F782F46
:10156000791B700F719F712D11246D2F8C2FDF91BE
:10157000CF911F910F910895E82F86FDE0952E2FB2
:101580002F7086FD2F5FE695E695E695E670F0E014
:10159000E255FE4F9181929F902D212D112492951D
:1015A0009F702295207F922B2081920F87FD91952D
:1015B00080E8890F08950F931F93CF93DF938B01DA
:1015C000D82FC42F822F0E94BC0AEC2FF0E0EE0F20
:1015D000FF1FE650FE4F90819058890F87FD81953F
:1015E000880F682F2CE0629F612D1124600F712FEE
:1015F0008D2FDF91CF911F910F910895409143015D
:101600005091440125E038E0429FC001439F900D76
:10161000529F900D1124875E994C909344018093C2
:101620004301890F0895AC018230910508F40895B3
:101630009FEF413E8EE1580740F49A0195E03695C0
:1016400027959A95E1F798E0920F61E0E62FE90F70
:10165000FF27FF1F9F0135952795822F229FF001BD
:10166000239FF00DF00D11244E175F0738F49FEF04
:10167000920F961758F78FEF860F08952F3FE9F3D3
:1016800061E0620FF6CF0F93CF93DF93D72FC82F70
:1016900047FD419588E390E0841B910947FD9395B0
:1016A000889FB001899F700D700D1124229FC00189
:1016B000239F900D900D1124860F971F0E94130BEE
:1016C000982F990F890F682F600F7D2F8C2FDF9136
:1016D000CF910F91089530E020E0869F212D969FB5
:1016E000200D311D1124C901089520918D0530E18F
:1016F000230F08F42FEF60E1822F90E00E946B0B24
:10170000BC0188EB9BE00E94453290E080E00895A8
:10171000982F80912405882329F081E09D3128F0BD
:1017200080E003C081E09A33D8F70895AF92BF926A
:10173000CF92DF92FF920F931F93CF93DF93362FB9
:10174000472FE82FF0E0E254FE4F71110FC0E491F3
:101750008E2F2E2F6E2F722FDF91CF911F910F9111
:10176000FF90DF90CF90BF90AF900895C72FD0E04B
:101770002491F22E022F10E056E0659FC001112443
:10178000EFEFF0E0BF010E944532832F90E0880F19
:10179000991F35E5369FD001379FB00D11248A1B64
:1017A0009B0B982F990F980F6F01CC1ADD0AC09EE2
:1017B000D001C19EB00DD09EB00D11248B2F499F3A
:1017C000A0011124452F55276F01C41AD50AC09EC8
:1017D000A001C19E500DD09E500D11245F01A91A89
:1017E000B108AC9E6001AD9ED00CBC9ED00C112403
:1017F000CD2CDD24EC19FD09E09FE001E19FD00D27
:10180000F09FD00D1124ED2F62307105A1F050F43E
:101810006115710509F49ECF6130710581F0EB2FE0
:10182000852F98CF6430710569F080F066307105BE
:1018300009F490CFF4CFE22F2B2F8D2F8BCFE22FF7
:10184000252F88CFEB2F822F2D2F84CF2B2F8F2D5D
:10185000E52F80CFB0E0A0E0E0E3FCE00C94643240
:101860008C01FC01E259FD4F8081682349F1D09041
:101870008B05D0918C05C0918A05EC2EF12C0E942D
:10188000FE0A282FC7018C549F4F68E671E00E9422
:101890009C328E199F0997FD03969595879595958E
:1018A000879523706C2F289F600D11247D2D8D2F1F
:1018B0000E94960B462F282F672FC8010E94D4093B
:1018C000CDB7DEB7E7E00C948032EF92FF920F9332
:1018D0001F93CF93DF937C01809151010E948F0869
:1018E000C82F192F60918D056695669521E0620FCE
:1018F00008F46FEF80918105909182050E946B0B37
:10190000082FD0E0C11740F0812F0E94880BCDB77F
:10191000DEB7E6E00C948132FE01E259FD4F808192
:1019200090915201892391F060918A0570918B0505
:1019300080918C05202F4C2FF70109950E94960B62
:10194000462F282F672FCE010E94D4092196DACF87
:10195000B0E0A0E0EEEAFCE00C9461326C01809112
:1019600051010E948F08C82FF92E60918D05669550
:10197000669580918105909182050E946B0B182FCE
:1019800080E4810F0E94BC0A90E8B92EB80E812F26
:101990000E94BC0A20E8A22EA80ED0E0CF1540F08D
:1019A0008F2D0E94880BCDB7DEB7EAE00C947D3214
:1019B000FE01E259FD4F8081909152018923A1F0EF
:1019C00060918A0570918B0580918C05E12E0C2F1A
:1019D0002A2D4B2DF60109950E94960B462F282F94
:1019E000672FCE010E94D4092196D8CFB0E0A0E0A5
:1019F000ECEFFCE00C945D323C01809151010E94BF
:101A00008F08C82F192F60918D05669580918105EB
:101A1000909182050E946B0BF82ED0E0CE01880FCA
:101A2000991F9C0122543E4F6901C11740F0812F3C
:101A30000E94880BCDB7DEB7EEE00C947932FE0140
:101A4000E259FD4F808190915201892379F1F6018D
:101A500084AD282F2057330B590185ADE82FE05274
:101A6000FF0B4F01AA9C9001AB9C300D300D11244F
:101A7000EE9FC001EF9F900D900D1124820F931FD8
:101A80000E94130B082F60918A0570918B0580913D
:101A90008C05EF2C9401A501F30109950E94960B8A
:101AA000462F282F672FCE010E94D409F2E0CF0ED7
:101AB000D11C2196BACFB0E0A0E0E1E6FDE00C94A5
:101AC00062326C01809151010E948F08C82F192F3A
:101AD00060918D05669580918105909182050E94A7
:101AE0006B0BB82ED0E0CE01880F991F9C012254B9
:101AF0003E4F7901C11740F0812F0E94880BCDB76E
:101B0000DEB7E9E00C947E32FE01E259FD4F8081A0
:101B1000909152018923C1F0F70125AD2052330B7A
:101B200044AD4057550B60918A0570918B058091AB
:101B30008C050B2DF60109950E94960B462F282F38
:101B4000672FCE010E94D409F2E0EF0EF11C21961E
:101B5000D1CF1F93CF93DF93EC01FC01E259FD4FEE
:101B600080816823B1F00E94FE0A182F0E94FE0AAD
:101B700020E8829FC00111247FE7790F612F8091B7
:101B80008C050E94960B462F282F672FCE010E94AE
:101B9000D409DF91CF911F91089580E0089581E0ED
:101BA000809357030895F894E82FE295EF70F0E0E2
:101BB00031A1282F2F7081E090E001C0880F2A9575
:101BC000EAF7982F9095932391A392A1892B82A352
:101BD000789408950F931F9380912305882329F00B
:101BE0000E9496061F910F9108950E9496060091FB
:101BF0002603109127032091280330912903600FB9
:101C0000711F821F931FEECF90913A0392FF10C075
:101C100041E0282F2471243009F040E031E0282FE2
:101C20002871283009F030E0431711F02CE08227AA
:101C300093FF10C041E0282F2471243109F040E0C7
:101C400031E0282F2871283109F030E0431711F0D6
:101C50002CE0822730913B0330FF10C051E0282F49
:101C60002171213009F050E041E0282F28712830FF
:101C700009F040E0541711F029E0822731FF10C02D
:101C800041E0282F2171213109F040E031E0282F77
:101C90002871283109F030E0431711F029E082273C
:101CA00094FD877E089582389105B9F1B0F48133AF
:101CB000910509F47DC048F48932910509F46DC09D
:101CC0008A32910509F47BC008958533910509F4A2
:101CD0005FC08933910509F10895833E9105D9F1DB
:101CE00038F4803E910529F1823E910579F10895FD
:101CF000863E9105D9F1873E910509F43EC0843EA8
:101D0000910541F520913B0321FF24C080913A03C6
:101D100084FD19C087EE90E0089520913A03237066
:101D200009F05AC020913B0323FF14C089E290E0E0
:101D3000089520913A0320FD38C030913B0330FFD5
:101D400009C024FF43C090E080E0089520913A0349
:101D500022FDF7CF089520913A0322FD3AC0309139
:101D60003B0330FD39C024FFF5CFEDCF20913A037E
:101D700023FFF0CF24FDE7CFCDCF20913A0323FD01
:101D80002EC030913B0331FFEECF84EE90E00895FA
:101D900020913A0325FFDECFC9CF20913A0325FDDC
:101DA00021C020913B0323FFD5CF89E390E0D2CF20
:101DB00020913A0326FFCECF8AE290E00895209149
:101DC0003A0326FFC7CF81E390E0089583EE90E0C9
:101DD000089582EE90E0089580EE90E0089586EEFA
:101DE00090E0089585E390E00895972F7A30B8F455
:101DF0006630A8F48230B0F470E026E0929F600D67
:101E0000711D1124FB019CE3899FE00DF11D11243C
:101E1000EE0FFF1FE455FF4F85919491089580E0E8
:101E200090E0089581E0FCCF1F93CF93DF930E9451
:101E3000530EEC01C11580E5D807F0F5C11580E41B
:101E4000D80708F09CC0C03ED10520F5CD3CD10597
:101E500008F082C0C83AD10578F4C53AD10508F037
:101E600073C0C130D10519F1209709F1C430D105F3
:101E7000F0F4D0E0C0E01BC0C33CD105D0F7C85A95
:101E8000D0E0CC0FDD1FC55ADE4F0990D881C02DA0
:101E9000D4640DC0C11580E2D80708F0D1C0C115C7
:101EA00081E0D80708F05AC0C83ED10510F7CE012E
:101EB000DF91CF911F910895C03682E5D80718F5BC
:101EC000C03482E5D80708F06BC0C03282E5D8077D
:101ED00008F05FC0C11582E5D80708F497C02C2F21
:101EE0002695269580E2289F900111248C2F8370DF
:101EF000C1E0D0E002C0CC0FDD1F8A95E2F7C22B13
:101F0000D32BDD68D4CFC03A82E5D80760F4C0385F
:101F100082E5D80708F459C0CF71D0E0DC2FCC2778
:101F2000C46FD06AC4CFC03C82E5D80708F462C051
:101F3000C03E82E5D80708F09CCFDC2FCC27CC2709
:101F4000DF71C06FD06AB3CFC55AD0E0C85ADE4F38
:101F5000C881D0E0D064ABCFD065A9CF8D2F0E94CF
:101F6000040E182FCE0199270E94530EC12FD0E0E6
:101F7000DC2FCC27CC27DF71C82BD92B98CFCE01F3
:101F800099270E94530ECC27DF70C82BD92BD06A1B
:101F90008ECFCF71D0E0DC2FCC27C16FD06A87CF36
:101FA0002C2F26952695277080E2289F90011124DA
:101FB0008C2F8370C1E0D0E002C0CC0FDD1F8A956A
:101FC000E2F7C22BD32BDC6872CF2C2F26952695F7
:101FD000277080E2289F900111248C2F8370C1E02C
:101FE000D0E002C0CC0FDD1F8A95E2F7C22BD32BC5
:101FF000DA685DCF8C2F8F710E94040EC82FD0E05D
:10200000DC2FCC27CC27DF71D06251CF8C2F8F7182
:102010000E94040E55E0D695C7955A95E1F7CF700A
:10202000D0E0DC2FCC27282F30E084FF05C044E02F
:10203000220F331F4A95E1F7C22BD32BD06937CF3C
:102040008D2F8F710E94040E182FCE0199270E94A8
:10205000530EC12FD0E0DC2FCC27CC27DF71C82B4B
:10206000D92BD2CF80959091E60298239093E602E7
:1020700008958091800590914705981301C00895B7
:102080008F5F8770FACFB0E0A0E0E9E4F0E10C9454
:1020900062327C010091380310913903809136033C
:1020A00090913703082B192BCFE0D0E0CC24C394B8
:1020B000D12CBC2EC6010C2E02C0880F991F0A9489
:1020C000E2F780239123892B49F4219790F7B12CD3
:1020D0008B2DCDB7DEB7E9E00C947E32B7018C2FA3
:1020E0000E94F50E0E94140F019779F3F1CFCF9360
:1020F000DF93EC010E944310BE010E94F50E0E9486
:10210000140FDF91CF9108959A3078F5863068F5F5
:10211000E82FF0E086E0989FE00DF11D11249E2F3E
:10212000977083E0F695E7958A95E1F7EE0FFF1F2C
:10213000EE0FFF1FEC54FD4F50E040E080E0219196
:1021400030E0092E02C0369527950A94E2F72170F7
:102150003327042E01C0220F0A94EAF7822B4F5F27
:102160005F4F4430510559F7089580E008959A3043
:1021700098F5863088F5E82FF0E086E0989FE00D2E
:10218000F11D11248E2F877041E001C0440F8A9504
:10219000EAF783E0F695E7958A95E1F7EE0FFF1FE2
:1021A000EE0FFF1FEC54FD4F30E020E070E0519146
:1021B000DF011197CB01022E02C0969587950A94F4
:1021C000E2F7817081958527842385278C932F5F83
:1021D0003F4F2430310559F7089590933903809388
:1021E0003803089521E030E002C0220F331F8A95A2
:1021F000E2F720953095809138039091390382233E
:1022000093230E94ED1008959091DB02809589231D
:102210008093DB02282F277069F4891759F0909179
:102220003B0392FF07C08695869586950E94F21023
:102230001092DB02089521E030E002C0220F331F2C
:102240008A95E2F78091380390913903822B932B82
:102250000E94ED10089590933703809336030895FC
:10226000FC0124812223C1F0808191810E9477109A
:1022700092959F70963091F058F4925F9F709230D3
:1022800058F4803F19F030F4883E30F481E008952E
:102290009A5FF4CF843FD1F380E00895883EB0F395
:1022A000813FD1F7F3CFA6E0B0E0E9E5F1E10C948E
:1022B000683249835A8349815A819923A1F02223A4
:1022C00091F0CA010E944310182F682F89819A81CA
:1022D0000E94B71069817A81812F0E94F50E26969F
:1022E000E3E00C948432CA010E948410182FF2CFCC
:1022F000CF93DF93C0919A07D0919B078A30C1F4A6
:1023000020919105CE0184599540622F70E00E9482
:102310004532281B822F66E00E949032C82FC150A0
:1023200018F4DF91CF91089580E20E947811F7CFE1
:102330008D30E9F4C459D54020919105622F70E0A9
:10234000CE010E944532281B822F9E01280F311D8D
:102350002115324018F080E0D0E0C0E0C80FD11D58
:10236000CC56DA4FD0939B07C0939A07DACF96E00A
:10237000FE01A4E9B7E001900D929A95E1F7803E45
:1023800008F458C086E0FE0111928A95E9F7C091E1
:102390009A07D0919B0746E050E0BE0184E997E0A0
:1023A0000E94BF329E0124593540892B41F1C90159
:1023B00045E0969587954A95E1F741E050E0BA01EE
:1023C00002C0660F771F8A95E2F7CB0160919205F4
:1023D00070919305862B972BB9016B5F7F4FE5E0DA
:1023E00076956795EA95E1F702C0440F551F6A9507
:1023F000E2F7842B952B90939305809392052A5FA7
:102400003F4F40919105642F70E0C9010E94453211
:10241000481B463010F4240F311D211572E0370798
:1024200010F030E020E02C563A4F30939B07209379
:102430009A0777CFF6E08F9FB0011124605C7B4F45
:1024400046E050E0CE010E94B632A1CF2091E602D4
:102450008091DD02282B8091DC02882381F0282BDB
:1024600030E08CEA92E0FC014191CF0141113F5FE5
:10247000F2E0823B9F07B9F731111092DC02209302
:10248000AA0248E050E06EED72E08AEA92E00E9413
:10249000BF32892BA9F088E0EAEAF2E0AEEDB2E0C3
:1024A00001900D928A95E1F7E0912705F0912805BA
:1024B000309731F00280F381E02D8AEA92E00995AD
:1024C0000895882321F00E9432100E942612089558
:1024D000882339F09091E602982B9093E6020E94AF
:1024E000261208950F931F93CF93DF938B01EA0178
:1024F00090913D05943061F58093E9008FEF9091C4
:10250000E800815095FD06C095ED9A95F1F7000021
:102510008111F5CF8091E80085FF1AC00E94460521
:10252000811111C08091E80085FD06C08091E8000E
:102530008E778093E800F2CFF80181918F0180932C
:10254000F100219779F78091E8008E778093E80079
:10255000DF91CF911F910F91089543E050E0BC01AE
:1025600082E00E947212089546E050E0BC0182E0D1
:102570000E9472120895CF93DF93EC0148E050E07F
:10258000BC0181E00E94721288E0FE01A3E3B5E085
:1025900001900D928A95E1F7DF91CF910895809196
:1025A0003504882339F13BB1377F2BB128604FB711
:1025B000F89486E394E0FC015191CF0168E02BB9D7
:1025C000000000C057FF3BB9550F000000C000C01D
:1025D00000C03BB900C06A9591F7F4E0843E9F07C4
:1025E00051F74FBF8FE594E00197F1F700C000006D
:1025F000109235040895B0E0A0E0E1E0F3E10C941E
:1026000061327C015B016A018091250301E010E0E9
:102610008A3010F40AE010E0C1E0D0E0B501C70153
:10262000F6010995811104C021960C171D072CF4A1
:10263000CDB7DEB7EAE00C947D32CC9F9001CD9F00
:10264000300D300D112490E080E045E34A95F1F71C
:102650000000019682179307C1F7E0CFAB0124E693
:1026600030E0BC0188E70E94F92F21E0892B09F0B6
:1026700020E0822F089580910A0590910D05911117
:1026800003C091E089270895882369F062E070E033
:1026900080EC92E00E942E13811103C080910A0504
:1026A000089510920A0580910A05EBCFCF93C0914F
:1026B0000A0580910D058823D1F00E949606605A84
:1026C00075418F4F9F4F6093060570930705809368
:1026D000080590930905C11108C062E070E08EEB17
:1026E00092E00E942E13811105C0C0910A058C2F23
:1026F000CF91089581E080930A05F7CFA5E0B0E07F
:10270000E4E8F3E10C9459320E94EA0D6093590316
:1027100070935A0380935B0390935C033091890517
:10272000232F2370722E19F0732E769476942091B5
:1027300054012130D1F0222351F0223009F4F4C4A5
:10274000233009F4FBC42596E2E10C947532109213
:102750005101609381057093820580938305909366
:10276000840581E080935401EECF9091460181E091
:1027700079120BC0832F83702091450130E091E0E6
:102780008217130609F490E0892F8170809353011A
:1027900080918E0590915201981739F080935201E3
:1027A00040E060E080E00E94D7093EE1371580F00C
:1027B000E72DF0E0E75DFC4C0C94B03280915301C2
:1027C000882309F457C140E060E080E00E94D70907
:1027D00080E050C1809151010E948F088983192F98
:1027E00060918A0570918B0580918C050E94960BF3
:1027F000062FF72EE82E9981892F90E09D838C83F8
:10280000BC81B11710F0812F71C0EC81FD81E259BC
:10281000FD4F808190915201892339F02E2D402F58
:102820006F2D8C819D810E94D409AC81BD81119650
:10283000BD83AC83E5CF809151010E948F088983CD
:10284000192FF0908B0500918C05E0918A05EA83A1
:102850006E2F7F2D802F0E94960BE62ED72EC82E2E
:1028600060918D05FA816F0F7F2D802F0E94960B4E
:10287000062FF72EB82E3981232F30E03D832C838D
:102880009C81911708F0BFCFEC81FD81E259FD4F8B
:10289000908180915201892361F02B2D402F6F2D63
:1028A00090FD03C02C2D4E2D6D2D8C819D810E949D
:1028B000D4098C819D8101969D838C83E1CF809189
:1028C00051010E948F08092FF0908B05E0908C0534
:1028D00020918D0510E4129F112D1124A82FB0E036
:1028E000BD83AC83FC81F01720F0802F0E94880B01
:1028F000C1C0EC81FD81E259FD4F80819091520170
:102900008923C9F0EC81FD81EE0FFF1FE254FE4FD9
:1029100085AD82958F7060918A05819F600D11242D
:102920007F2D8E2D0E94960B462F282F672F8C818E
:102930009D810E94D409EC81FD813196FD83EC8359
:10294000D1CF809151010E948F08092FF0908B0503
:10295000E0908C0520918D0510E4129F112D11241B
:10296000282F30E03D832C839C81901708F0BDCF49
:10297000EC81FD81E259FD4F8081909152018923C4
:10298000E9F0EC81FD81EE0FFF1FE254FE4F64ADD4
:10299000169FB0011124E5E075956795EA95E1F77A
:1029A00080918A05680F7F2D8E2D0E94960B462FF1
:1029B000282F672F8C819D810E94D4098C819D8155
:1029C00001969D838C83D0CF809151010E948F0806
:1029D0008983192F00918A05A0918B05AA83F09015
:1029E0008C0560918D05669566956695809181054B
:1029F000909182050E946B0B0E94BC0A805887FD53
:102A00008195880F282F3F2D239F212D1124822F60
:102A1000602F7A810E94960B062FF72EE82E99815F
:102A2000892F90E09D838C83BC81B11708F0EBCE99
:102A3000EC81FD81E259FD4F808190915201892303
:102A400039F02E2D402F6F2D8C819D810E94D4094D
:102A5000AC81BD811196BD83AC83E6CF8BEA99E052
:102A60000E94650C07C081E899E0FACF8EE99AE0F0
:102A70000E945B0D9091510121E0290F209351019B
:102A800081114FC382E080935401809153018111E1
:102A900048C3772009F450C3892F0E948F0853CE72
:102AA0008FE79AE0E5CF84E69AE00E94F60CE2CF49
:102AB00088E49AE0FACF8FE799E0D2CF86E799E0F1
:102AC000CFCF8DE699E0CCCF84E599E0C9CF86E4FD
:102AD00099E0EBCF83E49BE0CBCF87E39AE0C8CFCC
:102AE00083E29AE0E2CF89E199E00E94A80CC2CF8C
:102AF0008BEE98E0FACF84EB98E0F7CF809151010C
:102B00000E948F08192F90915301911120C060915C
:102B10008D0520E1620F08F46FEF8091810590919F
:102B200082050E946B0B6AE070E00E944532892B9F
:102B300009F069CE0E94FE0AEAE38E9FC0011124CB
:102B400060915201892F90E00E942A0C5CCE282FC0
:102B500030E03D832C83E12EF12CAC81BD81AE159C
:102B6000BF050CF050CE609152018C819D810E9476
:102B70002A0C8C819D8101969D838C83EECF809160
:102B800051010E948F08192F90915301911120C07B
:102B900060918D0520E1620F08F46FEF809181054F
:102BA000909182050E946B0B65E070E00E944532B7
:102BB000892B09F028CE0E94FE0ABAE38B9FC00140
:102BC000112460915201892F90E00E94A90D1BCE23
:102BD000E82FF0E0FD83EC83E12EF12C8C819D81C8
:102BE0008E159F050CF00FCE609152018C819D8156
:102BF0000E94A90D2C813D812F5F3F4F3D832C8387
:102C0000EDCF809151010E948F088983192FF09098
:102C10008B0500918C0590918A059A8360918D05B2
:102C200066956695669580918105909182050E94D2
:102C30006B0B0E94BC0A805887FD8195880F682F16
:102C40002CE0629F612D1124AA816A0F7F2D802FB5
:102C50000E94960B062FF72EE82EF981EF2FF0E059
:102C6000FD83EC833C81311708F0CDCDEC81FD81F3
:102C7000E259FD4F808190915201892339F02E2D28
:102C8000402F6F2D8C819D810E94D4092C813D8124
:102C90002F5F3F4F3D832C83E5CF8BED9AE0E0CE55
:102CA00083EA98E0DDCE809151010E948F08192FB0
:102CB0004091810550918205609183057091840552
:102CC00080915D0390915E03A0915F03B0916003DA
:102CD00084179507A607B70708F095CD0E94FE0A4E
:102CE000EAE38E9FD00111242B2F33273D832C83C1
:102CF000F901E259FD4F808190915201892309F435
:102D000082CD0E94FE0A81FD3CC00E94FE0A082F6F
:102D10000E94FE0A30E8839FC00111247FE7790FEB
:102D200080918C05602F0E94960B462F282F672FCD
:102D30008C819D810E94D40920918D0530E1230F63
:102D400008F42FEF60E1822F90E00E946B0BBC0132
:102D500084EF91E00E944532809181059091820537
:102D6000A0918305B0918405860F971FA11DB11D09
:102D700080935D0390935E03A0935F03B093600321
:102D800042CD80E070E000E0CDCF40910F04509143
:102D9000100460911104709112048091810590914A
:102DA0008205A0918305B091840584179507A60735
:102DB000B70708F40DCD809153018823E9F040E076
:102DC00060E080E00E94D70901E613E01D821C82CA
:102DD0000E94FE0A81FF5EC0D8011C9211961C92CF
:102DE000119712961C92EC81FD813196FD83EC8344
:102DF0000D5F1F4FFA9761F7809151010E948F0874
:102E0000192FE82EF12C93E0899F900111242F595E
:102E10003C4F3D832C83E11608F45DC0812F0E9456
:102E2000880B8111F0CC20E0812F8150990B7C011F
:102E3000822F90E08E159F050CF469C00E94FE0A57
:102E4000D701AA0FBB1FBD83AC8381FF77C0AE0D36
:102E5000BF1DAF59BC4F1C9211961C921197129630
:102E60001C920E94750BC0908105D0908205E09065
:102E70008305F0908405DC01CB018C0D9D1DAE1DFA
:102E8000BF1D80930F0490931004A0931104B0937E
:102E90001204B9CC0E94FE0AD82E0E94FE0AB0E8A5
:102EA0008B9FC00111247FE7790FEC80FD80EE0C31
:102EB000FF1CEC81FD81EE0EFF1E97012F593C4F48
:102EC00079016D2D80918C050E94960BD7016D9331
:102ED0007D938C9388CFF701E259FD4F80819091CB
:102EE0005201892359F0AC81BD8112962C91129721
:102EF0004C9111966C91C7010E94D409EC81FD811F
:102F00003396FD83EC83FFEFEF1AFF0A84CFFC01B9
:102F1000EE0FFF1FE80FF91FEF59FC4F0196DC0180
:102F2000AA0FBB1FA80FB91FAF59BC4F8D919D9120
:102F3000AC9180839183A2832F5F7ACF0E94FE0A97
:102F4000082F0E94FE0AB0E88B9FC00111247FE782
:102F5000790FEC81FD81EE0DFF1DEF59FC4FFD83D4
:102F6000EC83602F80918C050E94960BAC81BD8113
:102F70006D937D938C9375CF80915301882329F0B5
:102F800040E060E080E00E94D709809151010E94FA
:102F90008F089B8340918105509182056091830544
:102FA000709184058091310490913204A091330492
:102FB000B091340484179507A607B70708F0AFC08F
:102FC00060918A0570918B0580918C050E94960B0B
:102FD000362E7A83282E03E114E0EEEBF1E0FD8338
:102FE000EC83AC80BD8036E0A30EB11C8C809D804C
:102FF00065017801198202C0F1E0F983D7018D9152
:103000007D01412C612C512C882319F0422C632C1A
:103010005A80D401ED914D01F0E0DF01A259BD4F7E
:103020009C9180915201982331F0242D452D662DDD
:10303000CF010E94D409D601EE916D01F0E0DF01CD
:10304000A259BD4F9C9180915201982331F0242DBB
:10305000452D662DCF010E94D409F701808131975B
:103060008083F981F13041F6D80112968C91D12CF0
:10307000F12CE12C882319F0D22CF32CEA80AC81BE
:10308000BD811296EC91F0E0DF01A259BD4F9C91F9
:1030900080915201982331F02D2D4E2D6F2DCF01AF
:1030A0000E94D409AC81BD811396EC91F0E0DF0160
:1030B000A259BD4F9C9180915201982331F02D2D42
:1030C0004E2D6F2DCF010E94D4090E94FE0A8370FD
:1030D00091E009F090E0F80192830D5F1F4FBD82EF
:1030E000AC822AEF31E02A153B0509F07ACF0E9425
:1030F000750B009181051091820520918305309117
:103100008405DC01CB01800F911FA21FB31F8093A8
:10311000310490933204A0933304B09334048B8130
:10312000E5CB7110B9CC0FCB70924601832F837021
:10313000809345010E94CF1283E014CB80918805D3
:10314000882351F048E050E067E170E089E895E0BD
:103150000E94F33210928805C0908105D0908205BC
:10316000E0908305F0908405809123058823C1F0C9
:103170002FB7F89460912C0570912D0580912E0544
:1031800090912F052FBF6C197D098E099F09603121
:1031900071058105910508F4D6CA10925401D3CA6D
:1031A0000E94EA0DF0CF90913B0392FB222720F979
:1031B000281779F080FB92F990933B0360913A03D2
:1031C00070913B0384E090E00E94213382E00E94F2
:1031D00004110895A9E0B0E0E0EFF8E10C94673243
:1031E00088E0E9E8F5E0DE01119601900D928A95FC
:1031F000E1F7198649E050E068E173E0CE010196FD
:103200000E94BF32009121031091220320912303D9
:1032100030912403EFB7F89440912C0550912D057F
:1032200060912E0570912F05EFBF401B510B620B73
:10323000730B443651056105710518F411E0892BB3
:1032400021F180913101909132018B5F9C4F40912F
:10325000300150E04A30510510F049E050E0BE0125
:103260006F5F7F4F0E94CC3286E090E00E94CF31AA
:10327000182F882351F00E949606609321037093C3
:1032800022038093230390932403812F2996E4E063
:103290000C948332A4E0B0E0E0E5F9E10C946832EC
:1032A0004091010350910203609103037091040364
:1032B0002FB7F89480912C0590912D05A0912E05A3
:1032C000B0912F052FBF841B950BA60BB70B11E0F8
:1032D00084369105A105B10570F10E94EA0D6E5F7B
:1032E0007F4F8F4F9F4F69837A838B839C8380911D
:1032F000290190912A018B5F9C4F4091280150E059
:103300004530510510F044E050E0BE016F5F7F4F43
:103310000E94CC3285E090E00E94CF31182F8823A4
:1033200051F00E949606609301037093020380930C
:10333000030390930403812F2496E3E00C948432DA
:103340004F925F927F928F929F92AF92BF92CF9255
:10335000DF92EF92FF920F931F93CF93DF930F9221
:10336000CDB7DEB7C62E4A015901482E880F550841
:10337000C2010E94CF31782E882309F480C0C20197
:1033800033E0880F991F3A95E1F7FC01E050FF4FB9
:10339000438150E04115510511F041E050E080506B
:1033A0009F4FFC01648175816B5F7C4FCE0101965C
:1033B0000E94CC32F40140815181628173812FB728
:1033C000F89480912C0590912D05A0912E05B09137
:1033D0002F052FBF841B950BA60BB70B84369105C9
:1033E000A105B10540F4B701C8010E9467079981A2
:1033F000891709F444C00C2C000CDD08C6010E949A
:10340000CF31782E811113C0712C872D0F90DF9151
:10341000CF911F910F91FF90EF90DF90CF90BF90D1
:10342000AF909F908F907F905F904F900895C601CE
:1034300023E0880F991F2A95E1F7FC01E050FF4F28
:10344000438150E0E416F50608F4A70180509F4F31
:10345000FC01648175816B5F7C4FC5010E94CC3299
:10346000B701C8010E94670799818913CDCF0E94D7
:103470009606F4016083718382839383C6CFA7018C
:10348000B801C5010E94CC32C0CFA8E0B0E0EBE4A7
:10349000FAE10C94653288E0E82EF12C0CE013E0A0
:1034A0009E012F5F3F4F4DEF52E063E082E00E94AC
:1034B000A019082F882389F190910B038091FC02B9
:1034C000981759F110E090910F0380910E0389171E
:1034D000F1F0E92FF0E0E75FFC4F878187FB66277B
:1034E00060F99F5F937090930F0390910D039F5F1E
:1034F00090930D038F770E94BC07182F8111E3CFA3
:1035000084E090E00E94CF31012F082302C0111106
:10351000F7CF80910B038093FC02802F2896E6E082
:103520000C948132A5E0B0E0E8E9FAE10C94633252
:103530006B0185E0E82EF12C06E013E09E012F5F81
:103540003F4F48EF52E061E080E00E94A0198823DD
:1035500049F095E0FE013196A3EFB2E001900D92A3
:103560009A95E1F795E0E3EFF2E0D60101900D9234
:103570009A95E1F72596E8E00C947F321F920F921E
:103580000FB60F9211242F933F934F935F936F9336
:103590007F938F939F93AF93BF93EF93FF9380910C
:1035A000E10082FF09C08091E20082FF05C08091A6
:1035B000E1008B7F8093E1008091DA0080FF24C0DE
:1035C0008091D80080FF20C08091DA008E7F8093A8
:1035D000DA008091D90080FF9DC080E189BD82E141
:1035E00089BD09B400FEFDCF81E080933D05809147
:1035F0003005811109C00E9427050E94C8058091ED
:10360000E20084608093E2008091E10080FF17C0B7
:103610008091E20080FF13C08091E2008E7F809352
:10362000E2008091E20080618093E2008091D80006
:1036300080628093D80019BC85E080933D0580911D
:10364000E10084FF2BC08091E20084FF27C080E16D
:1036500089BD82E189BD89B5982F917080FFFBCF2C
:103660008091D8008F7D8093D8008091E1008F7E7B
:103670008093E1008091E2008F7E8093E200809150
:10368000E20081608093E20080913E05882309F486
:1036900047C084E080933D0580913D058091E10025
:1036A00083FF27C08091E20083FF23C08091E10067
:1036B000877F8093E10082E080933D0510923E0574
:1036C0008091E1008E7F8093E1008091E2008E7F07
:1036D0008093E2008091E20080618093E20042E00A
:1036E00060E080E00E9496058091F0008860809301
:1036F000F000FF91EF91BF91AF919F918F917F91DA
:103700006F915F914F913F912F910F900FBE0F904E
:103710001F90189519BC10923D051092300574CF7A
:103720008091E30087FD93E090933D05B5CF7894B9
:103730001F921FB61F9211248F939F93AF93BF9335
:1037400080912C0590912D05A0912E05B0912F050B
:103750000196A11DB11D80932C0590932D05A0937A
:103760002E05B0932F05BF91AF919F918F911F9020
:103770001FBE1F9018959C014FB7F89480912C059F
:1037800090912D05A0912E05B0912F054FBF821B62
:10379000930B08952FB7F89480912C0590912D05E7
:1037A000A0912E05B0912F052FBF08950E94CA1B2E
:1037B0009C0190911F0580912005982B21F030935A
:1037C0001C0520931B059091210580912205982BC3
:1037D00021F030931A0520931905E0912705F09107
:1037E0002805309749F082E080931D050680F78117
:1037F000E02D8DE195E009950895CF931092E602B2
:10380000C6E0ECEAF2E0DF018C2F1D928A95E9F721
:1038100090E080E00E94E10690E080E00E94BC061B
:103820001092DD020E942612EDE1F5E0DF011D920B
:10383000CA95E9F71092160510921705109218050F
:103840000E94D61BCF910895AAE2B0E0EAE2FCE123
:103850000C9468328FE395E02091F100FC012193F4
:10386000CF01F5E087349F07B9F780914005833099
:1038700009F470C0B8F4813009F447C0823009F40B
:10388000B1C08091E80083FF7EC280913F05909196
:1038900040059A3008F077C2E92FF0E0E85BFC4C75
:1038A0000C94B0328A3009F48CC08B3009F46FC0AC
:1038B000893039F780913F05813219F780914305AE
:1038C000909144050297E8F68091E800877F809305
:1038D000E8008091E80082FF38C09091F300809169
:1038E000F200029731F48091F100813011F08630BE
:1038F00021F48091F100809332058091E8008B776C
:103900008093E8000E947705BCCF80913F05813A03
:1039100009F0B7CF8091E800877F8093E80080911D
:10392000430590914405892B61F468E083E395E0B9
:1039300070E00E9423068091E8008B778093E80076
:10394000A0CF60E090E080E0F3CF80913D05811151
:10395000C0CF97CF80913F05813A09F092CF8091F7
:10396000430590914405892B09F08BCF8091E800A5
:10397000877F8093E8008091E80080FFFCCF8091F2
:1039800050018093F1008091E8008E77B9CF80914B
:103990003F05813209F075CF809143059091440530
:1039A000892B09F06ECF8091E800877F8093E80033
:1039B0000E94770580914105809350010E94FD1B74
:1039C00060CF80913F05813209F05BCF8091E800A4
:1039D000877F8093E8000E9477058091420580935D
:1039E00031054FCF80913F05813A09F04ACF809150
:1039F000E800877F8093E8008091E80080FFFCCF9B
:103A000080913105BECF803899F0823809F0BBC172
:103A1000809143058F70873008F0B5C18093E9002D
:103A20008091EB0085FB882780F91092E90006C0A1
:103A300080913B0590913C05911182609091E80046
:103A4000977F9093E8008093F1001092F1008091AD
:103A5000E8008E7794C1882309F482C1823009F08E
:103A600092C180914105811185C1809143058F707C
:103A70002FEF280F263008F086C18093E9002091AF
:103A8000EB0020FF77C1933031F48091EB0080622E
:103A90008093EB006FC19091EB0090619093EB00ED
:103AA00021E030E001C0220F8A95EAF72093EA0076
:103AB0001092EA008091EB008860EACF811163C127
:103AC000109141051F778091E3008078812B8093CE
:103AD000E3008091E800877F8093E8000E947705EB
:103AE0008091E80080FFFCCF8091E30080688093A4
:103AF000E30082E0111183E080933D0544C18058CA
:103B0000823008F040C180914105909142058C3D82
:103B100023E09207A1F583E08A838AE289834FB785
:103B2000F894DE01139620E03EE051E2E32FF0E04E
:103B300050935700E49120FF03C0E295EF703F5F80
:103B4000EF708E2F90E0EA30C0F0C7968D939D9372
:103B50002F5F243159F74FBF8091E800877F809312
:103B6000E8006AE270E0CE0101960E94230680918F
:103B7000E8008B778093E80006C1C096E7CF4091BC
:103B8000430550914405292F33272330310509F48B
:103B900044C078F52130310509F46FC08BE390E023
:103BA000E1ECF3E02230310509F0EDC02091E800AE
:103BB000277F2093E8002091450530914605821724
:103BC000930708F49C0140E02115310509F064C019
:103BD000411162C08091E80082FDC9CF80913D050E
:103BE000882329F2853019F28091E80083FFF2CF13
:103BF000BECF21323105A9F12232310509F0C3C00F
:103C00004115510509F443C04130510509F0BBC0CD
:103C10008BE790E0E2E0F3E0C9CF9927813091058E
:103C2000C1F0009759F0029709F0ADC0EEE0F4E062
:103C3000E4918E2F90E0EEE0F4E007C0ECE3F4E0D6
:103C4000E4918E2F90E0ECE3F4E0009709F49BC040
:103C5000ADCFE6E2F4E0E4918E2F90E0E6E2F4E00E
:103C6000F4CF4115510571F04130510509F08BC079
:103C700089E090E0ECEEF3E099CF82E190E0ECEFA8
:103C8000F3E094CF89E090E0E3EDF3E08FCF84E4BC
:103C900090E0EDE7F3E08ACF80913D05882309F4B9
:103CA00066CF853009F463CF8091E80083FD5FCF54
:103CB0008091E80082FD8ECF8091E80080FF84CF64
:103CC0009091F3008091F2002115310519F08830B0
:103CD000910550F041E0089709F040E08091E8003C
:103CE0008E778093E80070CF44914093F100319635
:103CF000215031090196E8CF803809F044C0809105
:103D0000E800877F8093E80080913E058093F10072
:103D10009ECE811138C0109141051230A0F58091DE
:103D2000E800877F8093E80010933E050E947705A6
:103D3000112311F084E005C08091E30087FDFACFE4
:103D400081E080933D0542E061EC81E00E949605B0
:103D500042E261EC82E00E94960580913D0513C02D
:103D600080914105813079F481E0933009F080E061
:103D700080933C051092E9008091E800877F809352
:103D8000E8000E9477058091E80083FF0AC08091D7
:103D9000E800877F8093E8008091EB008062809349
:103DA000EB00AA96E3E00C9484321F920F920FB6B8
:103DB0000F9211242F933F934F935F936F937F93B1
:103DC0008F939F93AF93BF93CF93DF93EF93FF9323
:103DD000D091E900DF708091EC00C82FC17080FDA8
:103DE000C0E81092E9008091F000877F8093F00096
:103DF00078940E94241C1092E9008091F000886061
:103E00008093F000CD2BCF70C093E900FF91EF912C
:103E1000DF91CF91BF91AF919F918F917F916F91E2
:103E20005F914F913F912F910F900FBE0F901F9078
:103E300018950E94FD1B2FEF84E39CE021508040E9
:103E40009040E1F700C0000088E19AE00FB6F894D6
:103E5000A895809360000FBE90936000FFCF66230B
:103E600009F45DC08D3C41F40E943907819580932F
:103E700020050E94D61B08958E3C19F40E94390734
:103E8000F6CF8F3C31F40E943907819580931F054E
:103E9000F0CF803D19F40E943907F8CF893D29F40D
:103EA0000E94170780932105E4CF8A3D21F40E94E8
:103EB00017078195F7CF8B3D31F40E941707819545
:103EC00080932205D6CF8C3D19F40E941707F8CFB6
:103ED0009FE2980F983070F4815D990B21E030E0FB
:103EE00001C0220F8A95EAF780911E05822B8093EC
:103EF0001E05BFCF8D3D31F4809118058160809300
:103F00001805B7CF8E3D21F4809118058260F7CF58
:103F10008F3D09F0AECF809118058460F0CF4091BD
:103F20001F058D3C59F48091200587FF0DC010922C
:103F3000200541110BC01092160508C08E3C81F47B
:103F40008091200518169CF3442381F0809121056F
:103F500090912205892B09F08CCF1092170589CFFB
:103F60008F3C49F447FFF0CF10921F058091200548
:103F70008111ECCFE0CF803D19F41416ACF3E4CFFF
:103F800090912105893D29F41916F4F61092210526
:103F9000DBCF8A3D19F497FFD7CFF8CF9091220558
:103FA0008B3D29F497FFD0CF10922205CDCF8C3DC9
:103FB00019F41916CCF3C8CF9FE2980F983090F4FB
:103FC000815D990B21E030E0B90102C0660F771FD7
:103FD0008A95E2F7CB01809590911E058923809305
:103FE0001E05B2CF8D3D31F4809118058E7F8093F0
:103FF0001805AACF8E3D21F4809118058D7FF7CF4B
:104000008F3D09F0A1CF809118058B7FF0CF8823D9
:10401000D1F19CEF980F913A78F4ECEAF2E09191AB
:10402000891303C0DF0111971C9292E0E23BF9076C
:10403000B1F70E942612089590E2980F983050F43C
:10404000877091E001C0990F8A95EAF7892F0E9445
:104050003210EFCF9BE5980F933028F490E080E08A
:104060000E94E106089598E5980F9B3128F490E0AE
:1040700080E00E94BC06089593E3980F933118F4F2
:1040800060E00E942F1F0895CF93C82F8823B1F0BE
:104090008CEF8C0F813A00F5ECEAF2E082EB92E0D3
:1040A000DF012D91C21761F08A179B07D1F76C2FA2
:1040B0008AEA92E00E94A2060E942612CF910895F9
:1040C0002191C21303C0DF0111971C928E179F0725
:1040D000B9F70E942612EBCF80E28C0F883068F48B
:1040E000C77021E030E001C0220FCA95EAF7809145
:1040F000E602822B8093E602DFCFEBE5EC0FE330A4
:1041000040F4F0E0E85AFE4F808190E00E94E10622
:10411000D5CFE8E5EC0FEB3150F4F0E0EE0FFF1FE8
:10412000E55AFE4F808191810E94BC06C7CF83E390
:104130008C0F833118F661E08C2F0E942F1FBECFA9
:104140000F931F93CF93DF93C62FD42F022FFC0121
:1041500085818823A9F0609387050E94CA1B9093EC
:10416000860580938505C77081E001C0880FCA95D8
:10417000EAF70E946812DF91CF911F910F91089585
:1041800080918705681335C08091850590918605DB
:104190000E94BB1B883C910560F510E21D0FCD17F6
:1041A000B9F080E28C0F883040F4C77081E001C024
:1041B000880FCA95EAF70E946112183048F481E02E
:1041C0009D2F977001C0880F9A95EAF70E94681298
:1041D000802F0E944420802F0E940720183058F61C
:1041E000D77081E001C0880FDA95EAF70E9461126A
:1041F000C2CFC77081E001C0880FCA95EAF7F6CF39
:1042000080E09091110520911005291749F1E92FBF
:10421000F0E0EE5EFA4F20819F5F9370909311055E
:1042200080910F058F5F80930F0527FD0BC08AEAF1
:104230000E9444208FE39CE90197F1F700C0000041
:104240008AEA0AC089EA0E9444208FE39CE9019728
:10425000F1F700C0000089EA0E94072081E0D1CF79
:104260000895B0E0A0E0E7E3F1E20C9461328C0144
:10427000FC018481882341F121E0408151816281E8
:10428000738195810E945311EC01FC01E851FC47B8
:10429000E730F105A8F5EE5AFC4C0C94B03226E25A
:1042A00041EE61EEC8010E94A0208091DB02877080
:1042B00059F0F8018581882339F080913B0382FF12
:1042C00003C082E00E940411CDB7DEB7EAE00C948F
:1042D0007D3227E245EE65EEE5CF26E241EE60EE67
:1042E000E1CF27E245EE64EEDDCF26E241EE62EE5D
:1042F000D9CF27E245EE66EED5CF28E241E0EBCFFD
:10430000F8018581882309F4BEC310928705CE0188
:104310009057839708F0A1C384E090E00E94ED32AB
:1043200090933B0380933A03FE01E150F047E23261
:10433000F10520F4E75AFC4C0C94B03280913A031A
:10434000816080933A0395C080913B03886080939D
:104350003B038FC080913A038260F3CF80913A0390
:104360008460EFCF80913A038860EBCF80913B036C
:104370008160EDCF80913B038260E9CF80913A0369
:104380008061DFCF80913A038062DBCF80913A0376
:104390008064D7CF0E94FD1B80913A038068D1CF03
:1043A00080913A038C60CDCF80913B038360CFCF67
:1043B00080913A038E7FC5CF80913B03877FC7CF23
:1043C00080913A038D7FBDCF80913A038B7FB9CF27
:1043D00080913A03877FB5CF80913B038E7FB7CF23
:1043E00080913B038D7FB3CF80913A038F7EA9CF1D
:1043F00080913A038F7DA5CF80913A038F7BA1CF27
:104400000E94FD1B80913A038F779BCF80913A03E6
:10441000837F97CF80913B038C7F99CF80913A0324
:1044200082FB992790F921E0922790FB82F990FB7B
:1044300083F987CF80913B03982F909591708E7F61
:10444000892B90FB81F983CF90913A03892F8F7B41
:1044500096FF806476CF0E94FD1B90913A03892FCE
:1044600097FB87F980586DCF61E08EE090E00E9465
:10447000033360913A0370913B0384E090E00E9423
:1044800021330E94FD1B11CF60E0EFCF90913A03E2
:10449000892F8F7E94FF806154CF90913A03892FAA
:1044A0008E7F90FF81604DCF90913B03892F877F56
:1044B00093FF88604CCF85E3EFC28091890591E03E
:1044C0008927809389051092540180918805816025
:1044D00080938805EACE4AE758E064E878E00E94D5
:1044E000E107E3CE44E858E06AE778E0F8CF46E633
:1044F00058E060E778E0F3CF40E758E066E678E020
:10450000EECF4CE458E069E578E0E9CF49E558E0C2
:104510006CE478E0E4CF42E358E06FE378E0DFCF8B
:104520004FE358E062E378E0DACF46E158E064E236
:1045300078E0D5CF44E258E066E178E0D0CF81E082
:104540000E94DF04B2CE85E0FBCF8DE0F9CF82E19F
:10455000F7CF0E94FD1BFFEF24E33CE0F150204029
:104560003040E1F700C000000E9485066FEF7FEF4A
:1045700090E080E00E9421330E94191F80913B034C
:1045800082FB882780F991E089270E94D318F801DF
:104590008581C081D181882309F44DC0CE010E945C
:1045A0004310F82E682FCE010E94B710BE018F2D48
:1045B0000E94F50E0E94140FD82FC92FA82EF801C3
:1045C000C580B680B2943FE0B3228091DB02877051
:1045D00009F1EC2CCC20F9F0892F807F803469F030
:1045E00080E28D0F8830B0F0892F807E803229F4F0
:1045F000F1E0FD1778F4BB2069F080913B0382FF66
:1046000009C082E00E9404118091DB028770EE24D1
:10461000E3948111E12CDC2ED2942FE0D2222BE006
:104620002D1508F46DC0ED2DF0E0E558FC4C0C9410
:10463000B03280E0AACFCE010E948410F82EB6CF0F
:104640003C2F3F70F32EC07F19F0F29490EFF922C7
:10465000CC20B9F0FF2069F080E28D0F883010F097
:10466000A11009C08091E602F82AF092E6020E94A9
:1046700026128D2F43C08091DD02F82AF092DD02D0
:10468000F6CF8D2F0E940720FF20D1F1D05ED830C9
:1046900010F0A11004C08F2D0E94321006C0F094BB
:1046A0008091DD02F822F092DD020E94261228C0DD
:1046B0008C2F8F70F82EC07FC03219F0F29480EFEB
:1046C000F822AA2059F091E0A91609F478C0CC206C
:1046D00009F484C0BB2009F446C0CBCF80913B03D2
:1046E00082FD3DC0CC20A9F1FF2039F08091E60287
:1046F000F82AF092E6020E94261280E00E944420EE
:10470000ED2DE850FF0B349710F40E940607EE20C1
:10471000A9F08091DB0280FD11C0F8011582869519
:10472000869586950E941B11C8010E9431218091B7
:10473000DB028695869586950E94F21020E0F801AE
:104740004081518162817381848195810E945311DE
:10475000BBCD80E00E940720FF2091F29CCFCC20AF
:10476000A1F0B11004C08F2D0E946812C9CFE1E002
:10477000BE12C6CF8091DC029F2D9823F91609F452
:10478000BFCFF82AF092DC02BBCFB110B9CF8F2D8A
:104790000E9461129091DC028F2D892329F08F2DC8
:1047A000809589238093DC028091B3029F2D98230A
:1047B00009F4A6CFF094F822F092B302A1CFCC2056
:1047C00029F0F5E0FB1508F49BCFCDCF24E02B15A5
:1047D00008F496CF8F2D0E94611292CFBB20D1F3A7
:1047E00039E3A31209C08FEF97EEE3E081509040C8
:1047F000E040E1F700C000008D2F0E94072080CF2D
:104800008C2F86958695837069F0813009F078CF7A
:104810008D2F9C2F9370C11002C080E090E00E9409
:10482000BC066ECF8D2F9C2F9370C11002C080E00C
:1048300090E00E94E10664CF6C2D8D2F0E942F1F07
:104840005FCF8C2F837009F03FC0C11059CF4D2F1F
:10485000429546954770440F440F2D2F2F7030E03E
:10486000042E02C0220F331F0A94E2F790E080E08A
:10487000D4FF09C08FE090E002C0880F991F4A95CD
:10488000E2F780959095C695C695C370C23099F0B1
:1048900078F44091360350913703C13039F0822BC0
:1048A000932B842395230E942B112ACF242B352B65
:1048B000822B932BF8CF822B932B209136033091B0
:1048C000370382279327EFCF8695CC2011F08C2FCA
:1048D0008170882309F414CF4D2F42954695477077
:1048E000440F440F2D2F2F7030E0042E02C0220FF2
:1048F000331F0A94E2F790E080E0D4FF09C08FE014
:1049000090E002C0880F991F4A95E2F78095909534
:10491000C695C695C370C23099F078F440913803BB
:1049200050913903C13039F0822B932B8423952386
:104930000E94ED10E5CE242B352B822B932BF8CF44
:10494000822B932B209138033091390382279327B0
:10495000EFCFCF70CC2029F08C2F0E941B118D2F10
:1049600003CF8D2F0E9461128C2F0E94F210C8CEAF
:104970008D2FF2EFAF1699F1FA1570F020EFA21615
:10498000D1F031EFA31691F0CC2009F456C0B1104C
:1049900070CE8C2F8F7127C093EFA91639F1E4EFF9
:1049A000AE12F2CF90913B0392FD2EC08C2F8F71EF
:1049B000CC20D9F218C0CC2069F0F4E0FB1508F443
:1049C0009FCECF7181E090E002C0880F991FCA95F9
:1049D000E2F7B8CF25E02B1508F492CEF2CF8C2F5A
:1049E0008F71C110C2CF0E941B118ACE90E080E06F
:1049F000CC2009F49DCFCF7181E090E002C0880FF8
:104A0000991FCA95E2F794CFCC2061F08C2F8F715B
:104A100092FFE9CF98E0899F9001112423602093B1
:104A2000DB02E1CF81E00E940411E1E0EB1508F028
:104A300067CE82E00E94041163CEBB2059F0893317
:104A400009F0DACEFFEF27EE33E0F150204030409E
:104A5000E1F7D0CE8C2F8F7188CFC631FCE7DF070E
:104A600049F58091E6028A7A91E009F490E090930A
:104A7000B20269E2811165E38AEA92E00E94A2062D
:104A80000E94261212CCC6312CE7D20799F58091EC
:104A9000B202811110CD89E2ECEAF2E022EB32E0C1
:104AA0009191891303C0DF0111971C922E173F07C4
:104AB000B9F7E6CFC3303CE7D30709F457CD50F43C
:104AC000C1159CE7D90709F444CDC130DC4709F48E
:104AD00053CD5DCDCB35FCE7DF0709F4AACDCC354E
:104AE0002CE7D20709F44ACDCA35DC4709F04FCD8F
:104AF00081E04BCD8091E6028272FE01E052F847E0
:104B0000E531F10508F043CDE957FC4C0C94B03287
:104B1000CF93DF938091DA02807F09F04DC08091BE
:104B2000D902882309F448C0E091800550914705D7
:104B3000C091D502D091D4026091D6027091D70273
:104B400047E05E17C9F18E2F90E0E49FF001112439
:104B5000E85BFA4F2481222391F1489FF001499F9D
:104B6000F00D1124DF01A85BBA4F11962C9111971B
:104B70002C1325C02C912D1322C015962C9115971E
:104B800021111DC012962D913C91261B370B283CFC
:104B90003105A8F48091DA028F7080618093DA0287
:104BA000E25BFA4F80818F708061808384ED92E0B8
:104BB0000E9431210E943910DF91CF910895FC01AC
:104BC0003196E770BECFA4E1B0E0E9EEF5E20C94D7
:104BD0005F328C0186E0F801DE011F9601900D9294
:104BE0008A95E1F7F8018481E58094EDA92E92E0A1
:104BF000B92E9091D802911128C0882319F1EE2086
:104C0000F1F0C8010E943011F82E8823C1F087E02E
:104C1000F801D50101900D928A95E1F78091D802B3
:104C2000813031F48091D4029091D5020E947710A6
:104C30000E9488258F2D6496ECE00C947B32C8018D
:104C40000E943121FF24F394F5CFD080C18082806F
:104C50009380F090D9022091D6023091D702A4011E
:104C6000421B530BFF2009F4D9C0483C510508F002
:104C700092C08823F9F29091D5028091DA02282F10
:104C8000207F09F056C0C91214C09091D402D912E5
:104C900010C0E11048C08F7080618093DA0284ED0B
:104CA00092E00E9431218091DA02F8018683F12C92
:104CB000C1CFE11038C06C2D8D2D0E94F8046C2DF1
:104CC0008D2D0E94F804E82E8111F1CFDF86C88A6D
:104CD0008F8598890E947710292F22952F70243074
:104CE00058F49F70223088F0992399F0F80196814A
:104CF000907F79F4FE2C9ECF2A5F2F70223068F0CF
:104D0000C8010E943121EF2CF5CF992311F088239F
:104D100089F3805E883070F3F3CF803F58F3815F72
:104D2000833070F7E7CF8091DA0281608093DA02F6
:104D3000BECFC91207C09091D402D91203C0EE2091
:104D400009F48DC0C8010E943011882309F477CF7F
:104D5000EE2009F474CF8091DA02803288F020913D
:104D6000D4023091D502398728879B868A86909114
:104D7000D8029C871D868E87CE0108960E9431211D
:104D800087E0F801A4EDB2E001900D928A95E1F779
:104D90000E94882557CF9091DA02292F207F51F465
:104DA00084ED92E00E94312187E0F50111928A950D
:104DB000E9F77DCF882309F43DCF8091D5028C118E
:104DC00010C08091D402D8120CC0E1100AC09683A2
:104DD000C8010E94312187E0F50111928A95E9F717
:104DE00029CFC8010E943011882309F428CFEE2072
:104DF00009F425CF8091DA02803210F22091D4029A
:104E00003091D5023A8329839C828B829091D8027B
:104E10009D831E828F83CE010196B0CF483C510501
:104E2000D0F6882309F40ECFFE2CEE2009F407CF2C
:104E30008091D5028C1120C08091D402D8121CC060
:104E40008091DA0280FD0FC0982F907F61F08683F9
:104E5000903F31F0982F907F905F8F70892B8683E1
:104E6000C8010E94312187E0F801A4EDB2E0019071
:104E70000D928A95E1F7DECEC8010E9430118111B2
:104E80007FCF8091DA0281608093DA02C8010E94AC
:104E90003121D0CEABE1B0E0E0E5F7E20C9467322F
:104EA0004E8B5F8B688F798F8A8F9B8F192F911113
:104EB0001092DD021D8A86E0FE017696DE011F96C5
:104EC00001900D928A95E1F70A8D002341F021E0CF
:104ED0004F85588969897A89C8010E9453110B8BC3
:104EE0001C8B87E0FE013F96DE01189601900D9223
:104EF0008A95E1F7CE0108960E94E32581112AC028
:104F000087E0FE013896DE01119601900D928A9598
:104F1000E1F78C858823F1F02091470530E0C90145
:104F20000196877099274091800548171906E9F086
:104F300097E0929FD001939FB00D1124A85BBA4FC8
:104F4000FE01319601900D929A95E1F78093470505
:104F50000E94391017E080918005909147058913D0
:104F600012C06B96E4E00C9483320E94FD1B1092F9
:104F700047051092800587E0E4EDF2E0DF011D9225
:104F80008A95E9F7E7CF819FC0011124885B9A4F8A
:104F90000E94E325882329F38091800590E0019603
:104FA0008770992780938005D6CF2F923F925F928A
:104FB0006F927F928F929F92AF92BF92CF92DF9229
:104FC000EF92FF920F931F93CF93DF9380910D0584
:104FD000882341F180910B0590910C050E94BB1B29
:104FE000C29790F58091920590919305892B09F0D5
:104FF00044C080910A058823A9F00E94960600917A
:105000000605109107052091080530910905601BE0
:10501000710B820B930B6F3F7F4F8F4F9F4710F4A5
:105020000E943B13DF91CF911F910F91FF90EF9062
:10503000DF90CF90BF90AF909F908F907F906F90B8
:105040005F903F902F9008950E94CA1B90930C058B
:1050500080930B0584E995E090939B0780939A07D2
:10506000E2ECF2E08491EF01882309F4BBCF0E94C7
:1050700078112196FE018491F7CF80910D05882348
:1050800009F4B7CF809105058111B3CF0E94561363
:1050900020919205309193052115310509F4A9CF8E
:1050A00080E041E050E0082F10E01A01082E02C015
:1050B000220C331C0A94E2F7B10162237323672B9D
:1050C00011F48F5FF0CF9091040590FF95C0880F89
:1050D000880F880F8093490110924C01895F80935B
:1050E0004A0183E080934D0124E630E047E050E040
:1050F00067E471E088E70E94B52F892B09F079CF2A
:10510000A80125E0440F551F2A95E1F78091040579
:1051100080FF84C0E4EEF4E080E2DF011D928A9516
:10512000E9F7AAEBB1E006EB11E08EEBC82E81E0C7
:10513000D82E97E0592E772473948D91E801299108
:105140008E01240F352F311D2C563A4FE82FF0E0F9
:10515000EC51FB4F90E080E0652C681A872C082EFC
:1051600001C0880C0A94EAF77901A12CE701B990F3
:105170007E01B820662D6A196770962E062E000CE7
:10518000770BDB2D01C0DD0F9A94EAF771956195DD
:1051900071096770772701C0B6946A95EAF7BD2A4E
:1051A0006081962E9B289082A39468E0A612DECFA1
:1051B000019631968830910579F6CA16DB0609F01A
:1051C000BCCF04E610E020E230E044EE54E060E4BE
:1051D00088E70E943F30892B09F00BCFE101C09591
:1051E000D0958091920590919305C823D923D093AF
:1051F0009305C0939205FDCE8295880F80768093AB
:1052000049019801369527953695279520934C01AD
:10521000815E80934A0120934D0166CF4C565A4FD0
:1052200004E610E020E230E0D2CFAFE0B0E0EBE106
:10523000F9E20C945E328E010F5F1F4F8AE0F80195
:1052400011928A95E9F783E9C82E81E0D82EF12CD6
:10525000E12CAA24A394B12C2EE9822E21E0922ED7
:10526000F60181916F018F3F09F442C0F894E82F55
:10527000E295EF70F0E021A18F70A50102C0440F0C
:10528000551F8A95E2F7CA01922F982B91A392A1FC
:105290008095892382A3789400C0E8E9F1E0712C1D
:1052A00031E021912F3F09F49EC0A22FA295AF704B
:1052B000B0E090968C9190E02F7002C09595879504
:1052C0002A95E2F780FD8FC0832F782A330F8E1640
:1052D0009F0639F7F601319780818F3F11F00E94C8
:1052E000D30D50EA5A95F1F7F801EE0DFF1D7082CB
:1052F0008FEFE81AF80AE5E0EE16F10409F0B0CFF6
:105300004AE050E0B8018AE293E00E94BF32009781
:1053100041F02AE0F801AAE2B3E001900D922A954B
:10532000E1F70091350310E0045C1C4F892B09F470
:105330005CC081E08093EB020E94CA1B9093EA025A
:105340008093E902D12CC0902305CC2009F4A4C09D
:105350007E01FBE0EF0EF11C85E0F70111928A95CA
:10536000E9F7809125038A3008F063C042E95AE1E9
:10537000B701C8010E94FB12882309F47CC045E4F0
:105380005AE1B701C8010E94FB12882309F473C0D7
:105390004AE459E1B701C8010E94FB12882309F4CD
:1053A0006AC04AEE58E1B701C8010E94FB12882387
:1053B00009F461C0109225038091340390E045E028
:1053C00050E0B701845C9C4F0E94BF3221E02093E3
:1053D000F202892B09F042C0C12C8C2D8D292F9609
:1053E000EDE00C947A3280E070CFD090EB02DD20BB
:1053F00009F4A8CF8091E9029091EA020E94BB1BB8
:10540000059708F49FCF45E050E06AE273E0C801D9
:105410000E94BF32892B59F085E0EAE2F3E0D8011F
:1054200001900D928A95E1F71092EB028CCFD12C6E
:10543000FBCF8091EC029091ED020E94BB1B843F58
:10544000914008F093CF8091F202882329F285E001
:10545000F70111928A95E9F71092F202A0913403B4
:10546000B0E0A45CBC4F85E0FE013B9601900D923C
:105470008A95E1F7B2CF809125038F3F31F08F5F9E
:10548000809325038A3008F497CF0E94CA1B90931B
:10549000ED028093EC02D7CF85E0F801A6E0B3E0FF
:1054A00001900D928A95E1F765E070E086E093E067
:1054B0000E9467078093050388E0EEE0F5E0ACE02A
:1054C000B3E001900D928A95E1F768E070E08CE01E
:1054D00093E00E94670780930B03809014039090E1
:1054E0001503A0901603B09017038091EE029091DF
:1054F000EF02A091F002B091F10288169906AA0677
:10550000BB06B1F08092EE029092EF02A092F00200
:10551000B092F1020E949606861A970AA80AB90A62
:105520008092260390922703A0922803B092290329
:1055300088E0E8E1F3E0A9E8B5E098CFA6E0B0E0C4
:10554000E4EAFAE20C9467320E94CA1B8C01809153
:10555000E7029091E8028017910781F019821A8280
:105560000E94CA1B682F49815A81792F80E090E000
:105570000E944A271093E8020093E7022696E4E08F
:105580000C9483321F921FB61F9211248F939F9306
:10559000AF93BF9380912B05811113C080912C058F
:1055A00090912D05A0912E05B0912F054196A11D3A
:1055B000B11D80932C0590932D05A0932E05B093DB
:1055C0002F05BF91AF919F918F911F901FBE1F908C
:1055D0001895CDB7DEB72F970FB6F894DEBF0FBE84
:1055E000CDBF85B7806885BF85B7806885BF84B724
:1055F000877F84BF0FB6F894A8958091600088617A
:1056000080936000109260000FBE80E890E00FB6BB
:10561000F89480936100909361000FBE8DEC9DE043
:105620009093A9028093A8020E9427050E94C805B2
:105630008091E20084608093E200789480913D053F
:105640008823A1F01091E9001F709091EC00892F40
:10565000817090FD80E8182B1092E9008091E8009D
:1056600083FD0E94241C1F701093E90082E084BD1A
:1056700093E095BD9AEF97BD80936E00109226033C
:105680001092270310922803109229038091D800CA
:1056900080618093D8002AE12A95F1F700C08091BB
:1056A000D900182F117080FD04C00E9427051092A8
:1056B0003D05109323051093240510933801111113
:1056C0000E94E330EEE0F5E088E0DF011D928A956C
:1056D000E9F78091380191E0892780935303809105
:1056E00038019093560380913801809138018111DF
:1056F00006C084EF80934E0185EF80934F0160E0F8
:1057000080E00E94990761E080E00E949907EFE83D
:10571000F1E03197F1F700C0000010E080915603EE
:10572000181708F4C8C0809138018091380195E0BD
:10573000811190E09093350385E0891B80933403B9
:1057400003E911E048E9E42E41E0F42ED8018D91FF
:105750008D018F3F11F00E94D30DE016F106B1F7D5
:1057600008E911E0F80181918F018F3F11F00E944B
:10577000D30DF1E00E391F07A9F78AE0ECE3F3E05F
:10578000DF01282F1D922A95E9F7EAE2F3E0DF0115
:105790001D928A95E9F790E080E00E94ED32853E07
:1057A0009E4F09F461C065EE7EEF90E080E00E94BC
:1057B000213360E082E090E00E94033381E090E0DA
:1057C000909337038093360361E083E090E00E947A
:1057D000033360E074E184E090E00E94213360E0F4
:1057E00086E090E00E94033360E087E090E00E9452
:1057F000033340E050E0BA0188E090E00E941533A6
:1058000060E083E290E00E94033360E08CE090E08F
:105810000E94033360E08DE090E00E940333198220
:105820001A821B821C821D821E821F82188648E0FB
:1058300050E067E170E0CE0101960E94F33240E053
:1058400050E0BA018FE190E00E94153340E050E053
:10585000BA018FE090E00E94153340E050E0BA01B9
:1058600083E190E00E94153382E090E00E94E532EF
:105870008093460384E090E00E94ED3290933B03D6
:1058800080933A030E941529EFEFF6E721E0E150FB
:10589000F0402040E1F700C000000E9415298091EF
:1058A0003C0380FF1AC06FEF7FEF90E080E00E9422
:1058B00021330E94850660E0812F0E947D07082F1A
:1058C00061E0812F0E947D07E12FF0E0EC5AFC4F50
:1058D000880F802B80831F5F21CF83E090E00E94A0
:1058E000E53290E00E942B110E94120881E0809323
:1058F000880548E050E067E170E089E895E00E94A3
:10590000D53210928805809189058C7FF9F485E362
:10591000809389058091550190915601A09157017E
:1059200080938A0590938B05A0938C058FE78093D5
:105930008D058FEF80938E0548E050E067E170E0C1
:1059400089E895E00E94F332109288058091230542
:10595000882309F4BAC082E08093040580E880932C
:1059600091050E94812F6BE070E083EB91E00E9433
:105970002E138823E9F18091040565E070E081FD34
:10598000A6C08EEA91E00E942E13882389F16DE073
:1059900070E08CE991E00E942E13882349F10E9467
:1059A0009606605A75418F4F9F4F6093060570931E
:1059B00007058093080590930905E4E9F5E080E088
:1059C00092E0DF019C011D9221503040E1F7F093FD
:1059D0009B07E0939A078FEF9FEF90939305809337
:1059E000920581E080930D0580930A0510920505CC
:1059F00080912305811102C00E94E63089E391E085
:105A0000909328058093270598E1C92ED12C26E490
:105A1000A22E23E0B22E7724739434E0832E912CAF
:105A200080913D0512E1853009F488C00E94152956
:105A300007E413E08CE3E82E83E0F82ED701F801A9
:105A400091918D9123E0E135F20709F481C0981717
:105A5000B9F3309123053F87612CD7015D907D011B
:105A6000F80121908F01251439F1412C332433940E
:105A70002524822D8321C1F0FF85FF23A9F04986CB
:105A80006A860E94CA1B9C878B8721E02D8791E044
:105A9000832D852109F490E09E8749855A856B8581
:105AA0007C858D850E944A274394330C36E043124F
:105AB000E0CFF8013197508263948AE06812CDCF2D
:105AC0000E94EA0D6624639448C080E045CF89EACD
:105AD00091E059CF80913D05843031F10E947E13D1
